{"contracts/FridgeSensorsIPFS.sol":{"FridgeIPFS":{"abi":[{"anonymous":false,"inputs":[{"indexed":true,"internalType":"uint256","name":"fridge_id","type":"uint256"},{"indexed":false,"internalType":"string","name":"ipfsHash","type":"string"}],"name":"DataSaved","type":"event"},{"inputs":[{"internalType":"uint256","name":"","type":"uint256"},{"internalType":"uint256","name":"","type":"uint256"}],"name":"fridges","outputs":[{"internalType":"uint256","name":"timestamp","type":"uint256"},{"internalType":"string","name":"ipfsHash","type":"string"}],"stateMutability":"view","type":"function"},{"inputs":[{"internalType":"uint256","name":"fridge_id","type":"uint256"}],"name":"getAllData","outputs":[{"components":[{"internalType":"uint256","name":"timestamp","type":"uint256"},{"internalType":"string","name":"ipfsHash","type":"string"}],"internalType":"struct FridgeIPFS.SensorData[]","name":"","type":"tuple[]"}],"stateMutability":"view","type":"function"},{"inputs":[{"internalType":"uint256","name":"fridge_id","type":"uint256"},{"internalType":"string","name":"_ipfsHash","type":"string"}],"name":"saveData","outputs":[],"stateMutability":"nonpayable","type":"function"},{"inputs":[{"components":[{"internalType":"uint256","name":"fridge_id","type":"uint256"},{"internalType":"string","name":"ipfsHash","type":"string"}],"internalType":"struct FridgeIPFS.Data[]","name":"data","type":"tuple[]"}],"name":"saveDataBatch","outputs":[],"stateMutability":"nonpayable","type":"function"}],"evm":{"bytecode":{"linkReferences":{},"object":"608060405234801561001057600080fd5b50610eb0806100206000396000f3fe608060405234801561001057600080fd5b506004361061004c5760003560e01c806316aa136e1461005157806330c20d5a1461008157806350eb48c1146100b2578063a3c62fce146100ce575b600080fd5b61006b600480360381019061006691906105af565b6100ea565b604051610078919061077a565b60405180910390f35b61009b6004803603810190610096919061079c565b6101f7565b6040516100a9929190610835565b60405180910390f35b6100cc60048036038101906100c791906108ca565b6102c0565b005b6100e860048036038101906100e39190610980565b610383565b005b6060600080838152602001908152602001600020805480602002602001604051908101604052809291908181526020016000905b828210156101ec57838290600052602060002090600202016040518060400160405290816000820154815260200160018201805461015b906109fc565b80601f0160208091040260200160405190810160405280929190818152602001828054610187906109fc565b80156101d45780601f106101a9576101008083540402835291602001916101d4565b820191906000526020600020905b8154815290600101906020018083116101b757829003601f168201915b5050505050815250508152602001906001019061011e565b505050509050919050565b6000602052816000526040600020818154811061021357600080fd5b90600052602060002090600202016000915091505080600001549080600101805461023d906109fc565b80601f0160208091040260200160405190810160405280929190818152602001828054610269906109fc565b80156102b65780601f1061028b576101008083540402835291602001916102b6565b820191906000526020600020905b81548152906001019060200180831161029957829003601f168201915b5050505050905082565b6102c8610555565b4281600001818152505082828080601f016020809104026020016040519081016040528093929190818152602001838380828437600081840152601f19601f82011690508083019250505050505050816020018190525060008085815260200190815260200160002081908060018154018082558091505060019003906000526020600020906002020160009091909190915060008201518160000155602082015181600101908161037a9190610c08565b50505050505050565b60005b8282905081101561055057610399610555565b428160000181815250508383838181106103b6576103b5610cda565b5b90506020028101906103c89190610d18565b80602001906103d79190610d40565b8080601f016020809104026020016040519081016040528093929190818152602001838380828437600081840152601f19601f82011690508083019250505050505050816020018190525060008085858581811061043857610437610cda565b5b905060200281019061044a9190610d18565b6000013581526020019081526020016000208190806001815401808255809150506001900390600052602060002090600202016000909190919091506000820151816000015560208201518160010190816104a59190610c08565b5050508383838181106104bb576104ba610cda565b5b90506020028101906104cd9190610d18565b600001357fab61aa111cde8c06bc7c0cdd02c52514657cbaab50ec3d9e043e2eef3a61196d85858581811061050557610504610cda565b5b90506020028101906105179190610d18565b80602001906105269190610d40565b604051610534929190610ddf565b60405180910390a250808061054890610e32565b915050610386565b505050565b604051806040016040528060008152602001606081525090565b600080fd5b600080fd5b6000819050919050565b61058c81610579565b811461059757600080fd5b50565b6000813590506105a981610583565b92915050565b6000602082840312156105c5576105c461056f565b5b60006105d38482850161059a565b91505092915050565b600081519050919050565b600082825260208201905092915050565b6000819050602082019050919050565b61061181610579565b82525050565b600081519050919050565b600082825260208201905092915050565b60005b83811015610651578082015181840152602081019050610636565b60008484015250505050565b6000601f19601f8301169050919050565b600061067982610617565b6106838185610622565b9350610693818560208601610633565b61069c8161065d565b840191505092915050565b60006040830160008301516106bf6000860182610608565b50602083015184820360208601526106d7828261066e565b9150508091505092915050565b60006106f083836106a7565b905092915050565b6000602082019050919050565b6000610710826105dc565b61071a81856105e7565b93508360208202850161072c856105f8565b8060005b85811015610768578484038952815161074985826106e4565b9450610754836106f8565b925060208a01995050600181019050610730565b50829750879550505050505092915050565b600060208201905081810360008301526107948184610705565b905092915050565b600080604083850312156107b3576107b261056f565b5b60006107c18582860161059a565b92505060206107d28582860161059a565b9150509250929050565b6107e581610579565b82525050565b600082825260208201905092915050565b600061080782610617565b61081181856107eb565b9350610821818560208601610633565b61082a8161065d565b840191505092915050565b600060408201905061084a60008301856107dc565b818103602083015261085c81846107fc565b90509392505050565b600080fd5b600080fd5b600080fd5b60008083601f84011261088a57610889610865565b5b8235905067ffffffffffffffff8111156108a7576108a661086a565b5b6020830191508360018202830111156108c3576108c261086f565b5b9250929050565b6000806000604084860312156108e3576108e261056f565b5b60006108f18682870161059a565b935050602084013567ffffffffffffffff81111561091257610911610574565b5b61091e86828701610874565b92509250509250925092565b60008083601f8401126109405761093f610865565b5b8235905067ffffffffffffffff81111561095d5761095c61086a565b5b6020830191508360208202830111156109795761097861086f565b5b9250929050565b600080602083850312156109975761099661056f565b5b600083013567ffffffffffffffff8111156109b5576109b4610574565b5b6109c18582860161092a565b92509250509250929050565b7f4e487b7100000000000000000000000000000000000000000000000000000000600052602260045260246000fd5b60006002820490506001821680610a1457607f821691505b602082108103610a2757610a266109cd565b5b50919050565b7f4e487b7100000000000000000000000000000000000000000000000000000000600052604160045260246000fd5b60008190508160005260206000209050919050565b60006020601f8301049050919050565b600082821b905092915050565b600060088302610abe7fffffffffffffffffffffffffffffffffffffffffffffffffffffffffffffffff82610a81565b610ac88683610a81565b95508019841693508086168417925050509392505050565b6000819050919050565b6000610b05610b00610afb84610579565b610ae0565b610579565b9050919050565b6000819050919050565b610b1f83610aea565b610b33610b2b82610b0c565b848454610a8e565b825550505050565b600090565b610b48610b3b565b610b53818484610b16565b505050565b5b81811015610b7757610b6c600082610b40565b600181019050610b59565b5050565b601f821115610bbc57610b8d81610a5c565b610b9684610a71565b81016020851015610ba5578190505b610bb9610bb185610a71565b830182610b58565b50505b505050565b600082821c905092915050565b6000610bdf60001984600802610bc1565b1980831691505092915050565b6000610bf88383610bce565b9150826002028217905092915050565b610c1182610617565b67ffffffffffffffff811115610c2a57610c29610a2d565b5b610c3482546109fc565b610c3f828285610b7b565b600060209050601f831160018114610c725760008415610c60578287015190505b610c6a8582610bec565b865550610cd2565b601f198416610c8086610a5c565b60005b82811015610ca857848901518255600182019150602085019450602081019050610c83565b86831015610cc55784890151610cc1601f891682610bce565b8355505b6001600288020188555050505b505050505050565b7f4e487b7100000000000000000000000000000000000000000000000000000000600052603260045260246000fd5b600080fd5b600080fd5b600080fd5b600082356001604003833603038112610d3457610d33610d09565b5b80830191505092915050565b60008083356001602003843603038112610d5d57610d5c610d09565b5b80840192508235915067ffffffffffffffff821115610d7f57610d7e610d0e565b5b602083019250600182023603831315610d9b57610d9a610d13565b5b509250929050565b82818337600083830152505050565b6000610dbe83856107eb565b9350610dcb838584610da3565b610dd48361065d565b840190509392505050565b60006020820190508181036000830152610dfa818486610db2565b90509392505050565b7f4e487b7100000000000000000000000000000000000000000000000000000000600052601160045260246000fd5b6000610e3d82610579565b91507fffffffffffffffffffffffffffffffffffffffffffffffffffffffffffffffff8203610e6f57610e6e610e03565b5b60018201905091905056fea2646970667358221220b4822bc8f37118f782e93966881e8b0269601a78e402b301f5964d185d72128764736f6c63430008130033","opcodes":"PUSH1 0x80 PUSH1 0x40 MSTORE CALLVALUE DUP1 ISZERO PUSH2 0x10 JUMPI PUSH1 0x0 DUP1 REVERT JUMPDEST POP PUSH2 0xEB0 DUP1 PUSH2 0x20 PUSH1 0x0 CODECOPY PUSH1 0x0 RETURN INVALID PUSH1 0x80 PUSH1 0x40 MSTORE CALLVALUE DUP1 ISZERO PUSH2 0x10 JUMPI PUSH1 0x0 DUP1 REVERT JUMPDEST POP PUSH1 0x4 CALLDATASIZE LT PUSH2 0x4C JUMPI PUSH1 0x0 CALLDATALOAD PUSH1 0xE0 SHR DUP1 PUSH4 0x16AA136E EQ PUSH2 0x51 JUMPI DUP1 PUSH4 0x30C20D5A EQ PUSH2 0x81 JUMPI DUP1 PUSH4 0x50EB48C1 EQ PUSH2 0xB2 JUMPI DUP1 PUSH4 0xA3C62FCE EQ PUSH2 0xCE JUMPI JUMPDEST PUSH1 0x0 DUP1 REVERT JUMPDEST PUSH2 0x6B PUSH1 0x4 DUP1 CALLDATASIZE SUB DUP2 ADD SWAP1 PUSH2 0x66 SWAP2 SWAP1 PUSH2 0x5AF JUMP JUMPDEST PUSH2 0xEA JUMP JUMPDEST PUSH1 0x40 MLOAD PUSH2 0x78 SWAP2 SWAP1 PUSH2 0x77A JUMP JUMPDEST PUSH1 0x40 MLOAD DUP1 SWAP2 SUB SWAP1 RETURN JUMPDEST PUSH2 0x9B PUSH1 0x4 DUP1 CALLDATASIZE SUB DUP2 ADD SWAP1 PUSH2 0x96 SWAP2 SWAP1 PUSH2 0x79C JUMP JUMPDEST PUSH2 0x1F7 JUMP JUMPDEST PUSH1 0x40 MLOAD PUSH2 0xA9 SWAP3 SWAP2 SWAP1 PUSH2 0x835 JUMP JUMPDEST PUSH1 0x40 MLOAD DUP1 SWAP2 SUB SWAP1 RETURN JUMPDEST PUSH2 0xCC PUSH1 0x4 DUP1 CALLDATASIZE SUB DUP2 ADD SWAP1 PUSH2 0xC7 SWAP2 SWAP1 PUSH2 0x8CA JUMP JUMPDEST PUSH2 0x2C0 JUMP JUMPDEST STOP JUMPDEST PUSH2 0xE8 PUSH1 0x4 DUP1 CALLDATASIZE SUB DUP2 ADD SWAP1 PUSH2 0xE3 SWAP2 SWAP1 PUSH2 0x980 JUMP JUMPDEST PUSH2 0x383 JUMP JUMPDEST STOP JUMPDEST PUSH1 0x60 PUSH1 0x0 DUP1 DUP4 DUP2 MSTORE PUSH1 0x20 ADD SWAP1 DUP2 MSTORE PUSH1 0x20 ADD PUSH1 0x0 KECCAK256 DUP1 SLOAD DUP1 PUSH1 0x20 MUL PUSH1 0x20 ADD PUSH1 0x40 MLOAD SWAP1 DUP2 ADD PUSH1 0x40 MSTORE DUP1 SWAP3 SWAP2 SWAP1 DUP2 DUP2 MSTORE PUSH1 0x20 ADD PUSH1 0x0 SWAP1 JUMPDEST DUP3 DUP3 LT ISZERO PUSH2 0x1EC JUMPI DUP4 DUP3 SWAP1 PUSH1 0x0 MSTORE PUSH1 0x20 PUSH1 0x0 KECCAK256 SWAP1 PUSH1 0x2 MUL ADD PUSH1 0x40 MLOAD DUP1 PUSH1 0x40 ADD PUSH1 0x40 MSTORE SWAP1 DUP2 PUSH1 0x0 DUP3 ADD SLOAD DUP2 MSTORE PUSH1 0x20 ADD PUSH1 0x1 DUP3 ADD DUP1 SLOAD PUSH2 0x15B SWAP1 PUSH2 0x9FC JUMP JUMPDEST DUP1 PUSH1 0x1F ADD PUSH1 0x20 DUP1 SWAP2 DIV MUL PUSH1 0x20 ADD PUSH1 0x40 MLOAD SWAP1 DUP2 ADD PUSH1 0x40 MSTORE DUP1 SWAP3 SWAP2 SWAP1 DUP2 DUP2 MSTORE PUSH1 0x20 ADD DUP3 DUP1 SLOAD PUSH2 0x187 SWAP1 PUSH2 0x9FC JUMP JUMPDEST DUP1 ISZERO PUSH2 0x1D4 JUMPI DUP1 PUSH1 0x1F LT PUSH2 0x1A9 JUMPI PUSH2 0x100 DUP1 DUP4 SLOAD DIV MUL DUP4 MSTORE SWAP2 PUSH1 0x20 ADD SWAP2 PUSH2 0x1D4 JUMP JUMPDEST DUP3 ADD SWAP2 SWAP1 PUSH1 0x0 MSTORE PUSH1 0x20 PUSH1 0x0 KECCAK256 SWAP1 JUMPDEST DUP2 SLOAD DUP2 MSTORE SWAP1 PUSH1 0x1 ADD SWAP1 PUSH1 0x20 ADD DUP1 DUP4 GT PUSH2 0x1B7 JUMPI DUP3 SWAP1 SUB PUSH1 0x1F AND DUP3 ADD SWAP2 JUMPDEST POP POP POP POP POP DUP2 MSTORE POP POP DUP2 MSTORE PUSH1 0x20 ADD SWAP1 PUSH1 0x1 ADD SWAP1 PUSH2 0x11E JUMP JUMPDEST POP POP POP POP SWAP1 POP SWAP2 SWAP1 POP JUMP JUMPDEST PUSH1 0x0 PUSH1 0x20 MSTORE DUP2 PUSH1 0x0 MSTORE PUSH1 0x40 PUSH1 0x0 KECCAK256 DUP2 DUP2 SLOAD DUP2 LT PUSH2 0x213 JUMPI PUSH1 0x0 DUP1 REVERT JUMPDEST SWAP1 PUSH1 0x0 MSTORE PUSH1 0x20 PUSH1 0x0 KECCAK256 SWAP1 PUSH1 0x2 MUL ADD PUSH1 0x0 SWAP2 POP SWAP2 POP POP DUP1 PUSH1 0x0 ADD SLOAD SWAP1 DUP1 PUSH1 0x1 ADD DUP1 SLOAD PUSH2 0x23D SWAP1 PUSH2 0x9FC JUMP JUMPDEST DUP1 PUSH1 0x1F ADD PUSH1 0x20 DUP1 SWAP2 DIV MUL PUSH1 0x20 ADD PUSH1 0x40 MLOAD SWAP1 DUP2 ADD PUSH1 0x40 MSTORE DUP1 SWAP3 SWAP2 SWAP1 DUP2 DUP2 MSTORE PUSH1 0x20 ADD DUP3 DUP1 SLOAD PUSH2 0x269 SWAP1 PUSH2 0x9FC JUMP JUMPDEST DUP1 ISZERO PUSH2 0x2B6 JUMPI DUP1 PUSH1 0x1F LT PUSH2 0x28B JUMPI PUSH2 0x100 DUP1 DUP4 SLOAD DIV MUL DUP4 MSTORE SWAP2 PUSH1 0x20 ADD SWAP2 PUSH2 0x2B6 JUMP JUMPDEST DUP3 ADD SWAP2 SWAP1 PUSH1 0x0 MSTORE PUSH1 0x20 PUSH1 0x0 KECCAK256 SWAP1 JUMPDEST DUP2 SLOAD DUP2 MSTORE SWAP1 PUSH1 0x1 ADD SWAP1 PUSH1 0x20 ADD DUP1 DUP4 GT PUSH2 0x299 JUMPI DUP3 SWAP1 SUB PUSH1 0x1F AND DUP3 ADD SWAP2 JUMPDEST POP POP POP POP POP SWAP1 POP DUP3 JUMP JUMPDEST PUSH2 0x2C8 PUSH2 0x555 JUMP JUMPDEST TIMESTAMP DUP2 PUSH1 0x0 ADD DUP2 DUP2 MSTORE POP POP DUP3 DUP3 DUP1 DUP1 PUSH1 0x1F ADD PUSH1 0x20 DUP1 SWAP2 DIV MUL PUSH1 0x20 ADD PUSH1 0x40 MLOAD SWAP1 DUP2 ADD PUSH1 0x40 MSTORE DUP1 SWAP4 SWAP3 SWAP2 SWAP1 DUP2 DUP2 MSTORE PUSH1 0x20 ADD DUP4 DUP4 DUP1 DUP3 DUP5 CALLDATACOPY PUSH1 0x0 DUP2 DUP5 ADD MSTORE PUSH1 0x1F NOT PUSH1 0x1F DUP3 ADD AND SWAP1 POP DUP1 DUP4 ADD SWAP3 POP POP POP POP POP POP POP DUP2 PUSH1 0x20 ADD DUP2 SWAP1 MSTORE POP PUSH1 0x0 DUP1 DUP6 DUP2 MSTORE PUSH1 0x20 ADD SWAP1 DUP2 MSTORE PUSH1 0x20 ADD PUSH1 0x0 KECCAK256 DUP2 SWAP1 DUP1 PUSH1 0x1 DUP2 SLOAD ADD DUP1 DUP3 SSTORE DUP1 SWAP2 POP POP PUSH1 0x1 SWAP1 SUB SWAP1 PUSH1 0x0 MSTORE PUSH1 0x20 PUSH1 0x0 KECCAK256 SWAP1 PUSH1 0x2 MUL ADD PUSH1 0x0 SWAP1 SWAP2 SWAP1 SWAP2 SWAP1 SWAP2 POP PUSH1 0x0 DUP3 ADD MLOAD DUP2 PUSH1 0x0 ADD SSTORE PUSH1 0x20 DUP3 ADD MLOAD DUP2 PUSH1 0x1 ADD SWAP1 DUP2 PUSH2 0x37A SWAP2 SWAP1 PUSH2 0xC08 JUMP JUMPDEST POP POP POP POP POP POP POP JUMP JUMPDEST PUSH1 0x0 JUMPDEST DUP3 DUP3 SWAP1 POP DUP2 LT ISZERO PUSH2 0x550 JUMPI PUSH2 0x399 PUSH2 0x555 JUMP JUMPDEST TIMESTAMP DUP2 PUSH1 0x0 ADD DUP2 DUP2 MSTORE POP POP DUP4 DUP4 DUP4 DUP2 DUP2 LT PUSH2 0x3B6 JUMPI PUSH2 0x3B5 PUSH2 0xCDA JUMP JUMPDEST JUMPDEST SWAP1 POP PUSH1 0x20 MUL DUP2 ADD SWAP1 PUSH2 0x3C8 SWAP2 SWAP1 PUSH2 0xD18 JUMP JUMPDEST DUP1 PUSH1 0x20 ADD SWAP1 PUSH2 0x3D7 SWAP2 SWAP1 PUSH2 0xD40 JUMP JUMPDEST DUP1 DUP1 PUSH1 0x1F ADD PUSH1 0x20 DUP1 SWAP2 DIV MUL PUSH1 0x20 ADD PUSH1 0x40 MLOAD SWAP1 DUP2 ADD PUSH1 0x40 MSTORE DUP1 SWAP4 SWAP3 SWAP2 SWAP1 DUP2 DUP2 MSTORE PUSH1 0x20 ADD DUP4 DUP4 DUP1 DUP3 DUP5 CALLDATACOPY PUSH1 0x0 DUP2 DUP5 ADD MSTORE PUSH1 0x1F NOT PUSH1 0x1F DUP3 ADD AND SWAP1 POP DUP1 DUP4 ADD SWAP3 POP POP POP POP POP POP POP DUP2 PUSH1 0x20 ADD DUP2 SWAP1 MSTORE POP PUSH1 0x0 DUP1 DUP6 DUP6 DUP6 DUP2 DUP2 LT PUSH2 0x438 JUMPI PUSH2 0x437 PUSH2 0xCDA JUMP JUMPDEST JUMPDEST SWAP1 POP PUSH1 0x20 MUL DUP2 ADD SWAP1 PUSH2 0x44A SWAP2 SWAP1 PUSH2 0xD18 JUMP JUMPDEST PUSH1 0x0 ADD CALLDATALOAD DUP2 MSTORE PUSH1 0x20 ADD SWAP1 DUP2 MSTORE PUSH1 0x20 ADD PUSH1 0x0 KECCAK256 DUP2 SWAP1 DUP1 PUSH1 0x1 DUP2 SLOAD ADD DUP1 DUP3 SSTORE DUP1 SWAP2 POP POP PUSH1 0x1 SWAP1 SUB SWAP1 PUSH1 0x0 MSTORE PUSH1 0x20 PUSH1 0x0 KECCAK256 SWAP1 PUSH1 0x2 MUL ADD PUSH1 0x0 SWAP1 SWAP2 SWAP1 SWAP2 SWAP1 SWAP2 POP PUSH1 0x0 DUP3 ADD MLOAD DUP2 PUSH1 0x0 ADD SSTORE PUSH1 0x20 DUP3 ADD MLOAD DUP2 PUSH1 0x1 ADD SWAP1 DUP2 PUSH2 0x4A5 SWAP2 SWAP1 PUSH2 0xC08 JUMP JUMPDEST POP POP POP DUP4 DUP4 DUP4 DUP2 DUP2 LT PUSH2 0x4BB JUMPI PUSH2 0x4BA PUSH2 0xCDA JUMP JUMPDEST JUMPDEST SWAP1 POP PUSH1 0x20 MUL DUP2 ADD SWAP1 PUSH2 0x4CD SWAP2 SWAP1 PUSH2 0xD18 JUMP JUMPDEST PUSH1 0x0 ADD CALLDATALOAD PUSH32 0xAB61AA111CDE8C06BC7C0CDD02C52514657CBAAB50EC3D9E043E2EEF3A61196D DUP6 DUP6 DUP6 DUP2 DUP2 LT PUSH2 0x505 JUMPI PUSH2 0x504 PUSH2 0xCDA JUMP JUMPDEST JUMPDEST SWAP1 POP PUSH1 0x20 MUL DUP2 ADD SWAP1 PUSH2 0x517 SWAP2 SWAP1 PUSH2 0xD18 JUMP JUMPDEST DUP1 PUSH1 0x20 ADD SWAP1 PUSH2 0x526 SWAP2 SWAP1 PUSH2 0xD40 JUMP JUMPDEST PUSH1 0x40 MLOAD PUSH2 0x534 SWAP3 SWAP2 SWAP1 PUSH2 0xDDF JUMP JUMPDEST PUSH1 0x40 MLOAD DUP1 SWAP2 SUB SWAP1 LOG2 POP DUP1 DUP1 PUSH2 0x548 SWAP1 PUSH2 0xE32 JUMP JUMPDEST SWAP2 POP POP PUSH2 0x386 JUMP JUMPDEST POP POP POP JUMP JUMPDEST PUSH1 0x40 MLOAD DUP1 PUSH1 0x40 ADD PUSH1 0x40 MSTORE DUP1 PUSH1 0x0 DUP2 MSTORE PUSH1 0x20 ADD PUSH1 0x60 DUP2 MSTORE POP SWAP1 JUMP JUMPDEST PUSH1 0x0 DUP1 REVERT JUMPDEST PUSH1 0x0 DUP1 REVERT JUMPDEST PUSH1 0x0 DUP2 SWAP1 POP SWAP2 SWAP1 POP JUMP JUMPDEST PUSH2 0x58C DUP2 PUSH2 0x579 JUMP JUMPDEST DUP2 EQ PUSH2 0x597 JUMPI PUSH1 0x0 DUP1 REVERT JUMPDEST POP JUMP JUMPDEST PUSH1 0x0 DUP2 CALLDATALOAD SWAP1 POP PUSH2 0x5A9 DUP2 PUSH2 0x583 JUMP JUMPDEST SWAP3 SWAP2 POP POP JUMP JUMPDEST PUSH1 0x0 PUSH1 0x20 DUP3 DUP5 SUB SLT ISZERO PUSH2 0x5C5 JUMPI PUSH2 0x5C4 PUSH2 0x56F JUMP JUMPDEST JUMPDEST PUSH1 0x0 PUSH2 0x5D3 DUP5 DUP3 DUP6 ADD PUSH2 0x59A JUMP JUMPDEST SWAP2 POP POP SWAP3 SWAP2 POP POP JUMP JUMPDEST PUSH1 0x0 DUP2 MLOAD SWAP1 POP SWAP2 SWAP1 POP JUMP JUMPDEST PUSH1 0x0 DUP3 DUP3 MSTORE PUSH1 0x20 DUP3 ADD SWAP1 POP SWAP3 SWAP2 POP POP JUMP JUMPDEST PUSH1 0x0 DUP2 SWAP1 POP PUSH1 0x20 DUP3 ADD SWAP1 POP SWAP2 SWAP1 POP JUMP JUMPDEST PUSH2 0x611 DUP2 PUSH2 0x579 JUMP JUMPDEST DUP3 MSTORE POP POP JUMP JUMPDEST PUSH1 0x0 DUP2 MLOAD SWAP1 POP SWAP2 SWAP1 POP JUMP JUMPDEST PUSH1 0x0 DUP3 DUP3 MSTORE PUSH1 0x20 DUP3 ADD SWAP1 POP SWAP3 SWAP2 POP POP JUMP JUMPDEST PUSH1 0x0 JUMPDEST DUP4 DUP2 LT ISZERO PUSH2 0x651 JUMPI DUP1 DUP3 ADD MLOAD DUP2 DUP5 ADD MSTORE PUSH1 0x20 DUP2 ADD SWAP1 POP PUSH2 0x636 JUMP JUMPDEST PUSH1 0x0 DUP5 DUP5 ADD MSTORE POP POP POP POP JUMP JUMPDEST PUSH1 0x0 PUSH1 0x1F NOT PUSH1 0x1F DUP4 ADD AND SWAP1 POP SWAP2 SWAP1 POP JUMP JUMPDEST PUSH1 0x0 PUSH2 0x679 DUP3 PUSH2 0x617 JUMP JUMPDEST PUSH2 0x683 DUP2 DUP6 PUSH2 0x622 JUMP JUMPDEST SWAP4 POP PUSH2 0x693 DUP2 DUP6 PUSH1 0x20 DUP7 ADD PUSH2 0x633 JUMP JUMPDEST PUSH2 0x69C DUP2 PUSH2 0x65D JUMP JUMPDEST DUP5 ADD SWAP2 POP POP SWAP3 SWAP2 POP POP JUMP JUMPDEST PUSH1 0x0 PUSH1 0x40 DUP4 ADD PUSH1 0x0 DUP4 ADD MLOAD PUSH2 0x6BF PUSH1 0x0 DUP7 ADD DUP3 PUSH2 0x608 JUMP JUMPDEST POP PUSH1 0x20 DUP4 ADD MLOAD DUP5 DUP3 SUB PUSH1 0x20 DUP7 ADD MSTORE PUSH2 0x6D7 DUP3 DUP3 PUSH2 0x66E JUMP JUMPDEST SWAP2 POP POP DUP1 SWAP2 POP POP SWAP3 SWAP2 POP POP JUMP JUMPDEST PUSH1 0x0 PUSH2 0x6F0 DUP4 DUP4 PUSH2 0x6A7 JUMP JUMPDEST SWAP1 POP SWAP3 SWAP2 POP POP JUMP JUMPDEST PUSH1 0x0 PUSH1 0x20 DUP3 ADD SWAP1 POP SWAP2 SWAP1 POP JUMP JUMPDEST PUSH1 0x0 PUSH2 0x710 DUP3 PUSH2 0x5DC JUMP JUMPDEST PUSH2 0x71A DUP2 DUP6 PUSH2 0x5E7 JUMP JUMPDEST SWAP4 POP DUP4 PUSH1 0x20 DUP3 MUL DUP6 ADD PUSH2 0x72C DUP6 PUSH2 0x5F8 JUMP JUMPDEST DUP1 PUSH1 0x0 JUMPDEST DUP6 DUP2 LT ISZERO PUSH2 0x768 JUMPI DUP5 DUP5 SUB DUP10 MSTORE DUP2 MLOAD PUSH2 0x749 DUP6 DUP3 PUSH2 0x6E4 JUMP JUMPDEST SWAP5 POP PUSH2 0x754 DUP4 PUSH2 0x6F8 JUMP JUMPDEST SWAP3 POP PUSH1 0x20 DUP11 ADD SWAP10 POP POP PUSH1 0x1 DUP2 ADD SWAP1 POP PUSH2 0x730 JUMP JUMPDEST POP DUP3 SWAP8 POP DUP8 SWAP6 POP POP POP POP POP POP SWAP3 SWAP2 POP POP JUMP JUMPDEST PUSH1 0x0 PUSH1 0x20 DUP3 ADD SWAP1 POP DUP2 DUP2 SUB PUSH1 0x0 DUP4 ADD MSTORE PUSH2 0x794 DUP2 DUP5 PUSH2 0x705 JUMP JUMPDEST SWAP1 POP SWAP3 SWAP2 POP POP JUMP JUMPDEST PUSH1 0x0 DUP1 PUSH1 0x40 DUP4 DUP6 SUB SLT ISZERO PUSH2 0x7B3 JUMPI PUSH2 0x7B2 PUSH2 0x56F JUMP JUMPDEST JUMPDEST PUSH1 0x0 PUSH2 0x7C1 DUP6 DUP3 DUP7 ADD PUSH2 0x59A JUMP JUMPDEST SWAP3 POP POP PUSH1 0x20 PUSH2 0x7D2 DUP6 DUP3 DUP7 ADD PUSH2 0x59A JUMP JUMPDEST SWAP2 POP POP SWAP3 POP SWAP3 SWAP1 POP JUMP JUMPDEST PUSH2 0x7E5 DUP2 PUSH2 0x579 JUMP JUMPDEST DUP3 MSTORE POP POP JUMP JUMPDEST PUSH1 0x0 DUP3 DUP3 MSTORE PUSH1 0x20 DUP3 ADD SWAP1 POP SWAP3 SWAP2 POP POP JUMP JUMPDEST PUSH1 0x0 PUSH2 0x807 DUP3 PUSH2 0x617 JUMP JUMPDEST PUSH2 0x811 DUP2 DUP6 PUSH2 0x7EB JUMP JUMPDEST SWAP4 POP PUSH2 0x821 DUP2 DUP6 PUSH1 0x20 DUP7 ADD PUSH2 0x633 JUMP JUMPDEST PUSH2 0x82A DUP2 PUSH2 0x65D JUMP JUMPDEST DUP5 ADD SWAP2 POP POP SWAP3 SWAP2 POP POP JUMP JUMPDEST PUSH1 0x0 PUSH1 0x40 DUP3 ADD SWAP1 POP PUSH2 0x84A PUSH1 0x0 DUP4 ADD DUP6 PUSH2 0x7DC JUMP JUMPDEST DUP2 DUP2 SUB PUSH1 0x20 DUP4 ADD MSTORE PUSH2 0x85C DUP2 DUP5 PUSH2 0x7FC JUMP JUMPDEST SWAP1 POP SWAP4 SWAP3 POP POP POP JUMP JUMPDEST PUSH1 0x0 DUP1 REVERT JUMPDEST PUSH1 0x0 DUP1 REVERT JUMPDEST PUSH1 0x0 DUP1 REVERT JUMPDEST PUSH1 0x0 DUP1 DUP4 PUSH1 0x1F DUP5 ADD SLT PUSH2 0x88A JUMPI PUSH2 0x889 PUSH2 0x865 JUMP JUMPDEST JUMPDEST DUP3 CALLDATALOAD SWAP1 POP PUSH8 0xFFFFFFFFFFFFFFFF DUP2 GT ISZERO PUSH2 0x8A7 JUMPI PUSH2 0x8A6 PUSH2 0x86A JUMP JUMPDEST JUMPDEST PUSH1 0x20 DUP4 ADD SWAP2 POP DUP4 PUSH1 0x1 DUP3 MUL DUP4 ADD GT ISZERO PUSH2 0x8C3 JUMPI PUSH2 0x8C2 PUSH2 0x86F JUMP JUMPDEST JUMPDEST SWAP3 POP SWAP3 SWAP1 POP JUMP JUMPDEST PUSH1 0x0 DUP1 PUSH1 0x0 PUSH1 0x40 DUP5 DUP7 SUB SLT ISZERO PUSH2 0x8E3 JUMPI PUSH2 0x8E2 PUSH2 0x56F JUMP JUMPDEST JUMPDEST PUSH1 0x0 PUSH2 0x8F1 DUP7 DUP3 DUP8 ADD PUSH2 0x59A JUMP JUMPDEST SWAP4 POP POP PUSH1 0x20 DUP5 ADD CALLDATALOAD PUSH8 0xFFFFFFFFFFFFFFFF DUP2 GT ISZERO PUSH2 0x912 JUMPI PUSH2 0x911 PUSH2 0x574 JUMP JUMPDEST JUMPDEST PUSH2 0x91E DUP7 DUP3 DUP8 ADD PUSH2 0x874 JUMP JUMPDEST SWAP3 POP SWAP3 POP POP SWAP3 POP SWAP3 POP SWAP3 JUMP JUMPDEST PUSH1 0x0 DUP1 DUP4 PUSH1 0x1F DUP5 ADD SLT PUSH2 0x940 JUMPI PUSH2 0x93F PUSH2 0x865 JUMP JUMPDEST JUMPDEST DUP3 CALLDATALOAD SWAP1 POP PUSH8 0xFFFFFFFFFFFFFFFF DUP2 GT ISZERO PUSH2 0x95D JUMPI PUSH2 0x95C PUSH2 0x86A JUMP JUMPDEST JUMPDEST PUSH1 0x20 DUP4 ADD SWAP2 POP DUP4 PUSH1 0x20 DUP3 MUL DUP4 ADD GT ISZERO PUSH2 0x979 JUMPI PUSH2 0x978 PUSH2 0x86F JUMP JUMPDEST JUMPDEST SWAP3 POP SWAP3 SWAP1 POP JUMP JUMPDEST PUSH1 0x0 DUP1 PUSH1 0x20 DUP4 DUP6 SUB SLT ISZERO PUSH2 0x997 JUMPI PUSH2 0x996 PUSH2 0x56F JUMP JUMPDEST JUMPDEST PUSH1 0x0 DUP4 ADD CALLDATALOAD PUSH8 0xFFFFFFFFFFFFFFFF DUP2 GT ISZERO PUSH2 0x9B5 JUMPI PUSH2 0x9B4 PUSH2 0x574 JUMP JUMPDEST JUMPDEST PUSH2 0x9C1 DUP6 DUP3 DUP7 ADD PUSH2 0x92A JUMP JUMPDEST SWAP3 POP SWAP3 POP POP SWAP3 POP SWAP3 SWAP1 POP JUMP JUMPDEST PUSH32 0x4E487B7100000000000000000000000000000000000000000000000000000000 PUSH1 0x0 MSTORE PUSH1 0x22 PUSH1 0x4 MSTORE PUSH1 0x24 PUSH1 0x0 REVERT JUMPDEST PUSH1 0x0 PUSH1 0x2 DUP3 DIV SWAP1 POP PUSH1 0x1 DUP3 AND DUP1 PUSH2 0xA14 JUMPI PUSH1 0x7F DUP3 AND SWAP2 POP JUMPDEST PUSH1 0x20 DUP3 LT DUP2 SUB PUSH2 0xA27 JUMPI PUSH2 0xA26 PUSH2 0x9CD JUMP JUMPDEST JUMPDEST POP SWAP2 SWAP1 POP JUMP JUMPDEST PUSH32 0x4E487B7100000000000000000000000000000000000000000000000000000000 PUSH1 0x0 MSTORE PUSH1 0x41 PUSH1 0x4 MSTORE PUSH1 0x24 PUSH1 0x0 REVERT JUMPDEST PUSH1 0x0 DUP2 SWAP1 POP DUP2 PUSH1 0x0 MSTORE PUSH1 0x20 PUSH1 0x0 KECCAK256 SWAP1 POP SWAP2 SWAP1 POP JUMP JUMPDEST PUSH1 0x0 PUSH1 0x20 PUSH1 0x1F DUP4 ADD DIV SWAP1 POP SWAP2 SWAP1 POP JUMP JUMPDEST PUSH1 0x0 DUP3 DUP3 SHL SWAP1 POP SWAP3 SWAP2 POP POP JUMP JUMPDEST PUSH1 0x0 PUSH1 0x8 DUP4 MUL PUSH2 0xABE PUSH32 0xFFFFFFFFFFFFFFFFFFFFFFFFFFFFFFFFFFFFFFFFFFFFFFFFFFFFFFFFFFFFFFFF DUP3 PUSH2 0xA81 JUMP JUMPDEST PUSH2 0xAC8 DUP7 DUP4 PUSH2 0xA81 JUMP JUMPDEST SWAP6 POP DUP1 NOT DUP5 AND SWAP4 POP DUP1 DUP7 AND DUP5 OR SWAP3 POP POP POP SWAP4 SWAP3 POP POP POP JUMP JUMPDEST PUSH1 0x0 DUP2 SWAP1 POP SWAP2 SWAP1 POP JUMP JUMPDEST PUSH1 0x0 PUSH2 0xB05 PUSH2 0xB00 PUSH2 0xAFB DUP5 PUSH2 0x579 JUMP JUMPDEST PUSH2 0xAE0 JUMP JUMPDEST PUSH2 0x579 JUMP JUMPDEST SWAP1 POP SWAP2 SWAP1 POP JUMP JUMPDEST PUSH1 0x0 DUP2 SWAP1 POP SWAP2 SWAP1 POP JUMP JUMPDEST PUSH2 0xB1F DUP4 PUSH2 0xAEA JUMP JUMPDEST PUSH2 0xB33 PUSH2 0xB2B DUP3 PUSH2 0xB0C JUMP JUMPDEST DUP5 DUP5 SLOAD PUSH2 0xA8E JUMP JUMPDEST DUP3 SSTORE POP POP POP POP JUMP JUMPDEST PUSH1 0x0 SWAP1 JUMP JUMPDEST PUSH2 0xB48 PUSH2 0xB3B JUMP JUMPDEST PUSH2 0xB53 DUP2 DUP5 DUP5 PUSH2 0xB16 JUMP JUMPDEST POP POP POP JUMP JUMPDEST JUMPDEST DUP2 DUP2 LT ISZERO PUSH2 0xB77 JUMPI PUSH2 0xB6C PUSH1 0x0 DUP3 PUSH2 0xB40 JUMP JUMPDEST PUSH1 0x1 DUP2 ADD SWAP1 POP PUSH2 0xB59 JUMP JUMPDEST POP POP JUMP JUMPDEST PUSH1 0x1F DUP3 GT ISZERO PUSH2 0xBBC JUMPI PUSH2 0xB8D DUP2 PUSH2 0xA5C JUMP JUMPDEST PUSH2 0xB96 DUP5 PUSH2 0xA71 JUMP JUMPDEST DUP2 ADD PUSH1 0x20 DUP6 LT ISZERO PUSH2 0xBA5 JUMPI DUP2 SWAP1 POP JUMPDEST PUSH2 0xBB9 PUSH2 0xBB1 DUP6 PUSH2 0xA71 JUMP JUMPDEST DUP4 ADD DUP3 PUSH2 0xB58 JUMP JUMPDEST POP POP JUMPDEST POP POP POP JUMP JUMPDEST PUSH1 0x0 DUP3 DUP3 SHR SWAP1 POP SWAP3 SWAP2 POP POP JUMP JUMPDEST PUSH1 0x0 PUSH2 0xBDF PUSH1 0x0 NOT DUP5 PUSH1 0x8 MUL PUSH2 0xBC1 JUMP JUMPDEST NOT DUP1 DUP4 AND SWAP2 POP POP SWAP3 SWAP2 POP POP JUMP JUMPDEST PUSH1 0x0 PUSH2 0xBF8 DUP4 DUP4 PUSH2 0xBCE JUMP JUMPDEST SWAP2 POP DUP3 PUSH1 0x2 MUL DUP3 OR SWAP1 POP SWAP3 SWAP2 POP POP JUMP JUMPDEST PUSH2 0xC11 DUP3 PUSH2 0x617 JUMP JUMPDEST PUSH8 0xFFFFFFFFFFFFFFFF DUP2 GT ISZERO PUSH2 0xC2A JUMPI PUSH2 0xC29 PUSH2 0xA2D JUMP JUMPDEST JUMPDEST PUSH2 0xC34 DUP3 SLOAD PUSH2 0x9FC JUMP JUMPDEST PUSH2 0xC3F DUP3 DUP3 DUP6 PUSH2 0xB7B JUMP JUMPDEST PUSH1 0x0 PUSH1 0x20 SWAP1 POP PUSH1 0x1F DUP4 GT PUSH1 0x1 DUP2 EQ PUSH2 0xC72 JUMPI PUSH1 0x0 DUP5 ISZERO PUSH2 0xC60 JUMPI DUP3 DUP8 ADD MLOAD SWAP1 POP JUMPDEST PUSH2 0xC6A DUP6 DUP3 PUSH2 0xBEC JUMP JUMPDEST DUP7 SSTORE POP PUSH2 0xCD2 JUMP JUMPDEST PUSH1 0x1F NOT DUP5 AND PUSH2 0xC80 DUP7 PUSH2 0xA5C JUMP JUMPDEST PUSH1 0x0 JUMPDEST DUP3 DUP2 LT ISZERO PUSH2 0xCA8 JUMPI DUP5 DUP10 ADD MLOAD DUP3 SSTORE PUSH1 0x1 DUP3 ADD SWAP2 POP PUSH1 0x20 DUP6 ADD SWAP5 POP PUSH1 0x20 DUP2 ADD SWAP1 POP PUSH2 0xC83 JUMP JUMPDEST DUP7 DUP4 LT ISZERO PUSH2 0xCC5 JUMPI DUP5 DUP10 ADD MLOAD PUSH2 0xCC1 PUSH1 0x1F DUP10 AND DUP3 PUSH2 0xBCE JUMP JUMPDEST DUP4 SSTORE POP JUMPDEST PUSH1 0x1 PUSH1 0x2 DUP9 MUL ADD DUP9 SSTORE POP POP POP JUMPDEST POP POP POP POP POP POP JUMP JUMPDEST PUSH32 0x4E487B7100000000000000000000000000000000000000000000000000000000 PUSH1 0x0 MSTORE PUSH1 0x32 PUSH1 0x4 MSTORE PUSH1 0x24 PUSH1 0x0 REVERT JUMPDEST PUSH1 0x0 DUP1 REVERT JUMPDEST PUSH1 0x0 DUP1 REVERT JUMPDEST PUSH1 0x0 DUP1 REVERT JUMPDEST PUSH1 0x0 DUP3 CALLDATALOAD PUSH1 0x1 PUSH1 0x40 SUB DUP4 CALLDATASIZE SUB SUB DUP2 SLT PUSH2 0xD34 JUMPI PUSH2 0xD33 PUSH2 0xD09 JUMP JUMPDEST JUMPDEST DUP1 DUP4 ADD SWAP2 POP POP SWAP3 SWAP2 POP POP JUMP JUMPDEST PUSH1 0x0 DUP1 DUP4 CALLDATALOAD PUSH1 0x1 PUSH1 0x20 SUB DUP5 CALLDATASIZE SUB SUB DUP2 SLT PUSH2 0xD5D JUMPI PUSH2 0xD5C PUSH2 0xD09 JUMP JUMPDEST JUMPDEST DUP1 DUP5 ADD SWAP3 POP DUP3 CALLDATALOAD SWAP2 POP PUSH8 0xFFFFFFFFFFFFFFFF DUP3 GT ISZERO PUSH2 0xD7F JUMPI PUSH2 0xD7E PUSH2 0xD0E JUMP JUMPDEST JUMPDEST PUSH1 0x20 DUP4 ADD SWAP3 POP PUSH1 0x1 DUP3 MUL CALLDATASIZE SUB DUP4 SGT ISZERO PUSH2 0xD9B JUMPI PUSH2 0xD9A PUSH2 0xD13 JUMP JUMPDEST JUMPDEST POP SWAP3 POP SWAP3 SWAP1 POP JUMP JUMPDEST DUP3 DUP2 DUP4 CALLDATACOPY PUSH1 0x0 DUP4 DUP4 ADD MSTORE POP POP POP JUMP JUMPDEST PUSH1 0x0 PUSH2 0xDBE DUP4 DUP6 PUSH2 0x7EB JUMP JUMPDEST SWAP4 POP PUSH2 0xDCB DUP4 DUP6 DUP5 PUSH2 0xDA3 JUMP JUMPDEST PUSH2 0xDD4 DUP4 PUSH2 0x65D JUMP JUMPDEST DUP5 ADD SWAP1 POP SWAP4 SWAP3 POP POP POP JUMP JUMPDEST PUSH1 0x0 PUSH1 0x20 DUP3 ADD SWAP1 POP DUP2 DUP2 SUB PUSH1 0x0 DUP4 ADD MSTORE PUSH2 0xDFA DUP2 DUP5 DUP7 PUSH2 0xDB2 JUMP JUMPDEST SWAP1 POP SWAP4 SWAP3 POP POP POP JUMP JUMPDEST PUSH32 0x4E487B7100000000000000000000000000000000000000000000000000000000 PUSH1 0x0 MSTORE PUSH1 0x11 PUSH1 0x4 MSTORE PUSH1 0x24 PUSH1 0x0 REVERT JUMPDEST PUSH1 0x0 PUSH2 0xE3D DUP3 PUSH2 0x579 JUMP JUMPDEST SWAP2 POP PUSH32 0xFFFFFFFFFFFFFFFFFFFFFFFFFFFFFFFFFFFFFFFFFFFFFFFFFFFFFFFFFFFFFFFF DUP3 SUB PUSH2 0xE6F JUMPI PUSH2 0xE6E PUSH2 0xE03 JUMP JUMPDEST JUMPDEST PUSH1 0x1 DUP3 ADD SWAP1 POP SWAP2 SWAP1 POP JUMP INVALID LOG2 PUSH5 0x6970667358 0x22 SLT KECCAK256 0xB4 DUP3 0x2B 0xC8 RETURN PUSH18 0x18F782E93966881E8B0269601A78E402B301 CREATE2 SWAP7 0x4D XOR 0x5D PUSH19 0x128764736F6C63430008130033000000000000 "},"methodIdentifiers":{"fridges(uint256,uint256)":"30c20d5a","getAllData(uint256)":"16aa136e","saveData(uint256,string)":"50eb48c1","saveDataBatch((uint256,string)[])":"a3c62fce"}}}}}