{"contracts/FridgeSensorsIPFSOwnerTxHash.sol":{"FridgeIPFSOwnerTxHash":{"abi":[{"anonymous":false,"inputs":[{"indexed":true,"internalType":"address","name":"uploader","type":"address"},{"indexed":true,"internalType":"uint256","name":"fridge_id","type":"uint256"},{"indexed":false,"internalType":"string","name":"ipfsHash","type":"string"}],"name":"DataSaved","type":"event"},{"inputs":[{"internalType":"address","name":"","type":"address"},{"internalType":"uint256","name":"","type":"uint256"},{"internalType":"uint256","name":"","type":"uint256"}],"name":"fridgesByUploader","outputs":[{"internalType":"uint256","name":"timestamp","type":"uint256"},{"internalType":"string","name":"ipfsHash","type":"string"},{"internalType":"string","name":"txHash","type":"string"}],"stateMutability":"view","type":"function"},{"inputs":[{"internalType":"address[]","name":"uploaders","type":"address[]"},{"internalType":"uint256","name":"fridge_id","type":"uint256"}],"name":"getAllDataByMultipleUploaders","outputs":[{"components":[{"internalType":"uint256","name":"timestamp","type":"uint256"},{"internalType":"string","name":"ipfsHash","type":"string"},{"internalType":"string","name":"txHash","type":"string"}],"internalType":"struct FridgeIPFSOwnerTxHash.SensorData[]","name":"","type":"tuple[]"}],"stateMutability":"view","type":"function"},{"inputs":[{"components":[{"internalType":"uint256","name":"fridge_id","type":"uint256"},{"internalType":"address","name":"uploader","type":"address"},{"internalType":"string","name":"ipfsHash","type":"string"},{"internalType":"string","name":"txHash","type":"string"}],"internalType":"struct FridgeIPFSOwnerTxHash.Data[]","name":"data","type":"tuple[]"}],"name":"saveDataBatch","outputs":[],"stateMutability":"nonpayable","type":"function"}],"evm":{"bytecode":{"linkReferences":{},"object":"608060405234801561001057600080fd5b506112ef806100206000396000f3fe608060405234801561001057600080fd5b50600436106100415760003560e01c8063107b47991461004657806337e4d15314610078578063feaefa9014610094575b600080fd5b610060600480360381019061005b9190610978565b6100c4565b60405161006f93929190610a6a565b60405180910390f35b610092600480360381019061008d9190610b14565b610228565b005b6100ae60048036038101906100a99190610bb7565b61054f565b6040516100bb9190610d89565b60405180910390f35b600060205282600052604060002060205281600052604060002081815481106100ec57600080fd5b9060005260206000209060030201600092509250505080600001549080600101805461011790610dda565b80601f016020809104026020016040519081016040528092919081815260200182805461014390610dda565b80156101905780601f1061016557610100808354040283529160200191610190565b820191906000526020600020905b81548152906001019060200180831161017357829003601f168201915b5050505050908060020180546101a590610dda565b80601f01602080910402602001604051908101604052809291908181526020018280546101d190610dda565b801561021e5780601f106101f35761010080835404028352916020019161021e565b820191906000526020600020905b81548152906001019060200180831161020157829003601f168201915b5050505050905083565b60005b8282905081101561054a5761023e6108b9565b4281600001818152505083838381811061025b5761025a610e0b565b5b905060200281019061026d9190610e49565b806040019061027c9190610e71565b8080601f016020809104026020016040519081016040528093929190818152602001838380828437600081840152601f19601f8201169050808301925050505050505081602001819052508383838181106102da576102d9610e0b565b5b90506020028101906102ec9190610e49565b80606001906102fb9190610e71565b8080601f016020809104026020016040519081016040528093929190818152602001838380828437600081840152601f19601f82011690508083019250505050505050816040018190525060008085858581811061035c5761035b610e0b565b5b905060200281019061036e9190610e49565b60200160208101906103809190610ed4565b73ffffffffffffffffffffffffffffffffffffffff1673ffffffffffffffffffffffffffffffffffffffff16815260200190815260200160002060008585858181106103cf576103ce610e0b565b5b90506020028101906103e19190610e49565b60000135815260200190815260200160002081908060018154018082558091505060019003906000526020600020906003020160009091909190915060008201518160000155602082015181600101908161043c91906110dc565b50604082015181600201908161045291906110dc565b50505083838381811061046857610467610e0b565b5b905060200281019061047a9190610e49565b6000013584848481811061049157610490610e0b565b5b90506020028101906104a39190610e49565b60200160208101906104b59190610ed4565b73ffffffffffffffffffffffffffffffffffffffff167f6667a5304245bcc169b30106ecb2562e762581332b1bd7ba8ffe21a897fe06a18686868181106104ff576104fe610e0b565b5b90506020028101906105119190610e49565b80604001906105209190610e71565b60405161052e9291906111ea565b60405180910390a35080806105429061123d565b91505061022b565b505050565b60608060005b8585905081101561077e57600080600088888581811061057857610577610e0b565b5b905060200201602081019061058d9190610ed4565b73ffffffffffffffffffffffffffffffffffffffff1673ffffffffffffffffffffffffffffffffffffffff1681526020019081526020016000206000868152602001908152602001600020805480602002602001604051908101604052809291908181526020016000905b8282101561075857838290600052602060002090600302016040518060600160405290816000820154815260200160018201805461063590610dda565b80601f016020809104026020016040519081016040528092919081815260200182805461066190610dda565b80156106ae5780601f10610683576101008083540402835291602001916106ae565b820191906000526020600020905b81548152906001019060200180831161069157829003601f168201915b505050505081526020016002820180546106c790610dda565b80601f01602080910402602001604051908101604052809291908181526020018280546106f390610dda565b80156107405780601f1061071557610100808354040283529160200191610740565b820191906000526020600020905b81548152906001019060200180831161072357829003601f168201915b505050505081525050815260200190600101906105f8565b505050509050610768838261078a565b92505080806107769061123d565b915050610555565b50809150509392505050565b606060008251845161079c9190611285565b67ffffffffffffffff8111156107b5576107b4610f01565b5b6040519080825280602002602001820160405280156107ee57816020015b6107db6108b9565b8152602001906001900390816107d35790505b50905060005b8451811015610849578481815181106108105761080f610e0b565b5b602002602001015182828151811061082b5761082a610e0b565b5b602002602001018190525080806108419061123d565b9150506107f4565b5060005b83518110156108ae5783818151811061086957610868610e0b565b5b60200260200101518282875161087f9190611285565b815181106108905761088f610e0b565b5b602002602001018190525080806108a69061123d565b91505061084d565b508091505092915050565b60405180606001604052806000815260200160608152602001606081525090565b600080fd5b600080fd5b600073ffffffffffffffffffffffffffffffffffffffff82169050919050565b600061090f826108e4565b9050919050565b61091f81610904565b811461092a57600080fd5b50565b60008135905061093c81610916565b92915050565b6000819050919050565b61095581610942565b811461096057600080fd5b50565b6000813590506109728161094c565b92915050565b600080600060608486031215610991576109906108da565b5b600061099f8682870161092d565b93505060206109b086828701610963565b92505060406109c186828701610963565b9150509250925092565b6109d481610942565b82525050565b600081519050919050565b600082825260208201905092915050565b60005b83811015610a145780820151818401526020810190506109f9565b60008484015250505050565b6000601f19601f8301169050919050565b6000610a3c826109da565b610a4681856109e5565b9350610a568185602086016109f6565b610a5f81610a20565b840191505092915050565b6000606082019050610a7f60008301866109cb565b8181036020830152610a918185610a31565b90508181036040830152610aa58184610a31565b9050949350505050565b600080fd5b600080fd5b600080fd5b60008083601f840112610ad457610ad3610aaf565b5b8235905067ffffffffffffffff811115610af157610af0610ab4565b5b602083019150836020820283011115610b0d57610b0c610ab9565b5b9250929050565b60008060208385031215610b2b57610b2a6108da565b5b600083013567ffffffffffffffff811115610b4957610b486108df565b5b610b5585828601610abe565b92509250509250929050565b60008083601f840112610b7757610b76610aaf565b5b8235905067ffffffffffffffff811115610b9457610b93610ab4565b5b602083019150836020820283011115610bb057610baf610ab9565b5b9250929050565b600080600060408486031215610bd057610bcf6108da565b5b600084013567ffffffffffffffff811115610bee57610bed6108df565b5b610bfa86828701610b61565b93509350506020610c0d86828701610963565b9150509250925092565b600081519050919050565b600082825260208201905092915050565b6000819050602082019050919050565b610c4c81610942565b82525050565b600082825260208201905092915050565b6000610c6e826109da565b610c788185610c52565b9350610c888185602086016109f6565b610c9181610a20565b840191505092915050565b6000606083016000830151610cb46000860182610c43565b5060208301518482036020860152610ccc8282610c63565b91505060408301518482036040860152610ce68282610c63565b9150508091505092915050565b6000610cff8383610c9c565b905092915050565b6000602082019050919050565b6000610d1f82610c17565b610d298185610c22565b935083602082028501610d3b85610c33565b8060005b85811015610d775784840389528151610d588582610cf3565b9450610d6383610d07565b925060208a01995050600181019050610d3f565b50829750879550505050505092915050565b60006020820190508181036000830152610da38184610d14565b905092915050565b7f4e487b7100000000000000000000000000000000000000000000000000000000600052602260045260246000fd5b60006002820490506001821680610df257607f821691505b602082108103610e0557610e04610dab565b5b50919050565b7f4e487b7100000000000000000000000000000000000000000000000000000000600052603260045260246000fd5b600080fd5b600080fd5b600080fd5b600082356001608003833603038112610e6557610e64610e3a565b5b80830191505092915050565b60008083356001602003843603038112610e8e57610e8d610e3a565b5b80840192508235915067ffffffffffffffff821115610eb057610eaf610e3f565b5b602083019250600182023603831315610ecc57610ecb610e44565b5b509250929050565b600060208284031215610eea57610ee96108da565b5b6000610ef88482850161092d565b91505092915050565b7f4e487b7100000000000000000000000000000000000000000000000000000000600052604160045260246000fd5b60008190508160005260206000209050919050565b60006020601f8301049050919050565b600082821b905092915050565b600060088302610f927fffffffffffffffffffffffffffffffffffffffffffffffffffffffffffffffff82610f55565b610f9c8683610f55565b95508019841693508086168417925050509392505050565b6000819050919050565b6000610fd9610fd4610fcf84610942565b610fb4565b610942565b9050919050565b6000819050919050565b610ff383610fbe565b611007610fff82610fe0565b848454610f62565b825550505050565b600090565b61101c61100f565b611027818484610fea565b505050565b5b8181101561104b57611040600082611014565b60018101905061102d565b5050565b601f8211156110905761106181610f30565b61106a84610f45565b81016020851015611079578190505b61108d61108585610f45565b83018261102c565b50505b505050565b600082821c905092915050565b60006110b360001984600802611095565b1980831691505092915050565b60006110cc83836110a2565b9150826002028217905092915050565b6110e5826109da565b67ffffffffffffffff8111156110fe576110fd610f01565b5b6111088254610dda565b61111382828561104f565b600060209050601f8311600181146111465760008415611134578287015190505b61113e85826110c0565b8655506111a6565b601f19841661115486610f30565b60005b8281101561117c57848901518255600182019150602085019450602081019050611157565b868310156111995784890151611195601f8916826110a2565b8355505b6001600288020188555050505b505050505050565b82818337600083830152505050565b60006111c983856109e5565b93506111d68385846111ae565b6111df83610a20565b840190509392505050565b600060208201905081810360008301526112058184866111bd565b90509392505050565b7f4e487b7100000000000000000000000000000000000000000000000000000000600052601160045260246000fd5b600061124882610942565b91507fffffffffffffffffffffffffffffffffffffffffffffffffffffffffffffffff820361127a5761127961120e565b5b600182019050919050565b600061129082610942565b915061129b83610942565b92508282019050808211156112b3576112b261120e565b5b9291505056fea2646970667358221220c29a81ceb428def7d9822b514a562638decffcec51b96458528bc9d591ce20f164736f6c63430008130033","opcodes":"PUSH1 0x80 PUSH1 0x40 MSTORE CALLVALUE DUP1 ISZERO PUSH2 0x10 JUMPI PUSH1 0x0 DUP1 REVERT JUMPDEST POP PUSH2 0x12EF DUP1 PUSH2 0x20 PUSH1 0x0 CODECOPY PUSH1 0x0 RETURN INVALID PUSH1 0x80 PUSH1 0x40 MSTORE CALLVALUE DUP1 ISZERO PUSH2 0x10 JUMPI PUSH1 0x0 DUP1 REVERT JUMPDEST POP PUSH1 0x4 CALLDATASIZE LT PUSH2 0x41 JUMPI PUSH1 0x0 CALLDATALOAD PUSH1 0xE0 SHR DUP1 PUSH4 0x107B4799 EQ PUSH2 0x46 JUMPI DUP1 PUSH4 0x37E4D153 EQ PUSH2 0x78 JUMPI DUP1 PUSH4 0xFEAEFA90 EQ PUSH2 0x94 JUMPI JUMPDEST PUSH1 0x0 DUP1 REVERT JUMPDEST PUSH2 0x60 PUSH1 0x4 DUP1 CALLDATASIZE SUB DUP2 ADD SWAP1 PUSH2 0x5B SWAP2 SWAP1 PUSH2 0x978 JUMP JUMPDEST PUSH2 0xC4 JUMP JUMPDEST PUSH1 0x40 MLOAD PUSH2 0x6F SWAP4 SWAP3 SWAP2 SWAP1 PUSH2 0xA6A JUMP JUMPDEST PUSH1 0x40 MLOAD DUP1 SWAP2 SUB SWAP1 RETURN JUMPDEST PUSH2 0x92 PUSH1 0x4 DUP1 CALLDATASIZE SUB DUP2 ADD SWAP1 PUSH2 0x8D SWAP2 SWAP1 PUSH2 0xB14 JUMP JUMPDEST PUSH2 0x228 JUMP JUMPDEST STOP JUMPDEST PUSH2 0xAE PUSH1 0x4 DUP1 CALLDATASIZE SUB DUP2 ADD SWAP1 PUSH2 0xA9 SWAP2 SWAP1 PUSH2 0xBB7 JUMP JUMPDEST PUSH2 0x54F JUMP JUMPDEST PUSH1 0x40 MLOAD PUSH2 0xBB SWAP2 SWAP1 PUSH2 0xD89 JUMP JUMPDEST PUSH1 0x40 MLOAD DUP1 SWAP2 SUB SWAP1 RETURN JUMPDEST PUSH1 0x0 PUSH1 0x20 MSTORE DUP3 PUSH1 0x0 MSTORE PUSH1 0x40 PUSH1 0x0 KECCAK256 PUSH1 0x20 MSTORE DUP2 PUSH1 0x0 MSTORE PUSH1 0x40 PUSH1 0x0 KECCAK256 DUP2 DUP2 SLOAD DUP2 LT PUSH2 0xEC JUMPI PUSH1 0x0 DUP1 REVERT JUMPDEST SWAP1 PUSH1 0x0 MSTORE PUSH1 0x20 PUSH1 0x0 KECCAK256 SWAP1 PUSH1 0x3 MUL ADD PUSH1 0x0 SWAP3 POP SWAP3 POP POP POP DUP1 PUSH1 0x0 ADD SLOAD SWAP1 DUP1 PUSH1 0x1 ADD DUP1 SLOAD PUSH2 0x117 SWAP1 PUSH2 0xDDA JUMP JUMPDEST DUP1 PUSH1 0x1F ADD PUSH1 0x20 DUP1 SWAP2 DIV MUL PUSH1 0x20 ADD PUSH1 0x40 MLOAD SWAP1 DUP2 ADD PUSH1 0x40 MSTORE DUP1 SWAP3 SWAP2 SWAP1 DUP2 DUP2 MSTORE PUSH1 0x20 ADD DUP3 DUP1 SLOAD PUSH2 0x143 SWAP1 PUSH2 0xDDA JUMP JUMPDEST DUP1 ISZERO PUSH2 0x190 JUMPI DUP1 PUSH1 0x1F LT PUSH2 0x165 JUMPI PUSH2 0x100 DUP1 DUP4 SLOAD DIV MUL DUP4 MSTORE SWAP2 PUSH1 0x20 ADD SWAP2 PUSH2 0x190 JUMP JUMPDEST DUP3 ADD SWAP2 SWAP1 PUSH1 0x0 MSTORE PUSH1 0x20 PUSH1 0x0 KECCAK256 SWAP1 JUMPDEST DUP2 SLOAD DUP2 MSTORE SWAP1 PUSH1 0x1 ADD SWAP1 PUSH1 0x20 ADD DUP1 DUP4 GT PUSH2 0x173 JUMPI DUP3 SWAP1 SUB PUSH1 0x1F AND DUP3 ADD SWAP2 JUMPDEST POP POP POP POP POP SWAP1 DUP1 PUSH1 0x2 ADD DUP1 SLOAD PUSH2 0x1A5 SWAP1 PUSH2 0xDDA JUMP JUMPDEST DUP1 PUSH1 0x1F ADD PUSH1 0x20 DUP1 SWAP2 DIV MUL PUSH1 0x20 ADD PUSH1 0x40 MLOAD SWAP1 DUP2 ADD PUSH1 0x40 MSTORE DUP1 SWAP3 SWAP2 SWAP1 DUP2 DUP2 MSTORE PUSH1 0x20 ADD DUP3 DUP1 SLOAD PUSH2 0x1D1 SWAP1 PUSH2 0xDDA JUMP JUMPDEST DUP1 ISZERO PUSH2 0x21E JUMPI DUP1 PUSH1 0x1F LT PUSH2 0x1F3 JUMPI PUSH2 0x100 DUP1 DUP4 SLOAD DIV MUL DUP4 MSTORE SWAP2 PUSH1 0x20 ADD SWAP2 PUSH2 0x21E JUMP JUMPDEST DUP3 ADD SWAP2 SWAP1 PUSH1 0x0 MSTORE PUSH1 0x20 PUSH1 0x0 KECCAK256 SWAP1 JUMPDEST DUP2 SLOAD DUP2 MSTORE SWAP1 PUSH1 0x1 ADD SWAP1 PUSH1 0x20 ADD DUP1 DUP4 GT PUSH2 0x201 JUMPI DUP3 SWAP1 SUB PUSH1 0x1F AND DUP3 ADD SWAP2 JUMPDEST POP POP POP POP POP SWAP1 POP DUP4 JUMP JUMPDEST PUSH1 0x0 JUMPDEST DUP3 DUP3 SWAP1 POP DUP2 LT ISZERO PUSH2 0x54A JUMPI PUSH2 0x23E PUSH2 0x8B9 JUMP JUMPDEST TIMESTAMP DUP2 PUSH1 0x0 ADD DUP2 DUP2 MSTORE POP POP DUP4 DUP4 DUP4 DUP2 DUP2 LT PUSH2 0x25B JUMPI PUSH2 0x25A PUSH2 0xE0B JUMP JUMPDEST JUMPDEST SWAP1 POP PUSH1 0x20 MUL DUP2 ADD SWAP1 PUSH2 0x26D SWAP2 SWAP1 PUSH2 0xE49 JUMP JUMPDEST DUP1 PUSH1 0x40 ADD SWAP1 PUSH2 0x27C SWAP2 SWAP1 PUSH2 0xE71 JUMP JUMPDEST DUP1 DUP1 PUSH1 0x1F ADD PUSH1 0x20 DUP1 SWAP2 DIV MUL PUSH1 0x20 ADD PUSH1 0x40 MLOAD SWAP1 DUP2 ADD PUSH1 0x40 MSTORE DUP1 SWAP4 SWAP3 SWAP2 SWAP1 DUP2 DUP2 MSTORE PUSH1 0x20 ADD DUP4 DUP4 DUP1 DUP3 DUP5 CALLDATACOPY PUSH1 0x0 DUP2 DUP5 ADD MSTORE PUSH1 0x1F NOT PUSH1 0x1F DUP3 ADD AND SWAP1 POP DUP1 DUP4 ADD SWAP3 POP POP POP POP POP POP POP DUP2 PUSH1 0x20 ADD DUP2 SWAP1 MSTORE POP DUP4 DUP4 DUP4 DUP2 DUP2 LT PUSH2 0x2DA JUMPI PUSH2 0x2D9 PUSH2 0xE0B JUMP JUMPDEST JUMPDEST SWAP1 POP PUSH1 0x20 MUL DUP2 ADD SWAP1 PUSH2 0x2EC SWAP2 SWAP1 PUSH2 0xE49 JUMP JUMPDEST DUP1 PUSH1 0x60 ADD SWAP1 PUSH2 0x2FB SWAP2 SWAP1 PUSH2 0xE71 JUMP JUMPDEST DUP1 DUP1 PUSH1 0x1F ADD PUSH1 0x20 DUP1 SWAP2 DIV MUL PUSH1 0x20 ADD PUSH1 0x40 MLOAD SWAP1 DUP2 ADD PUSH1 0x40 MSTORE DUP1 SWAP4 SWAP3 SWAP2 SWAP1 DUP2 DUP2 MSTORE PUSH1 0x20 ADD DUP4 DUP4 DUP1 DUP3 DUP5 CALLDATACOPY PUSH1 0x0 DUP2 DUP5 ADD MSTORE PUSH1 0x1F NOT PUSH1 0x1F DUP3 ADD AND SWAP1 POP DUP1 DUP4 ADD SWAP3 POP POP POP POP POP POP POP DUP2 PUSH1 0x40 ADD DUP2 SWAP1 MSTORE POP PUSH1 0x0 DUP1 DUP6 DUP6 DUP6 DUP2 DUP2 LT PUSH2 0x35C JUMPI PUSH2 0x35B PUSH2 0xE0B JUMP JUMPDEST JUMPDEST SWAP1 POP PUSH1 0x20 MUL DUP2 ADD SWAP1 PUSH2 0x36E SWAP2 SWAP1 PUSH2 0xE49 JUMP JUMPDEST PUSH1 0x20 ADD PUSH1 0x20 DUP2 ADD SWAP1 PUSH2 0x380 SWAP2 SWAP1 PUSH2 0xED4 JUMP JUMPDEST PUSH20 0xFFFFFFFFFFFFFFFFFFFFFFFFFFFFFFFFFFFFFFFF AND PUSH20 0xFFFFFFFFFFFFFFFFFFFFFFFFFFFFFFFFFFFFFFFF AND DUP2 MSTORE PUSH1 0x20 ADD SWAP1 DUP2 MSTORE PUSH1 0x20 ADD PUSH1 0x0 KECCAK256 PUSH1 0x0 DUP6 DUP6 DUP6 DUP2 DUP2 LT PUSH2 0x3CF JUMPI PUSH2 0x3CE PUSH2 0xE0B JUMP JUMPDEST JUMPDEST SWAP1 POP PUSH1 0x20 MUL DUP2 ADD SWAP1 PUSH2 0x3E1 SWAP2 SWAP1 PUSH2 0xE49 JUMP JUMPDEST PUSH1 0x0 ADD CALLDATALOAD DUP2 MSTORE PUSH1 0x20 ADD SWAP1 DUP2 MSTORE PUSH1 0x20 ADD PUSH1 0x0 KECCAK256 DUP2 SWAP1 DUP1 PUSH1 0x1 DUP2 SLOAD ADD DUP1 DUP3 SSTORE DUP1 SWAP2 POP POP PUSH1 0x1 SWAP1 SUB SWAP1 PUSH1 0x0 MSTORE PUSH1 0x20 PUSH1 0x0 KECCAK256 SWAP1 PUSH1 0x3 MUL ADD PUSH1 0x0 SWAP1 SWAP2 SWAP1 SWAP2 SWAP1 SWAP2 POP PUSH1 0x0 DUP3 ADD MLOAD DUP2 PUSH1 0x0 ADD SSTORE PUSH1 0x20 DUP3 ADD MLOAD DUP2 PUSH1 0x1 ADD SWAP1 DUP2 PUSH2 0x43C SWAP2 SWAP1 PUSH2 0x10DC JUMP JUMPDEST POP PUSH1 0x40 DUP3 ADD MLOAD DUP2 PUSH1 0x2 ADD SWAP1 DUP2 PUSH2 0x452 SWAP2 SWAP1 PUSH2 0x10DC JUMP JUMPDEST POP POP POP DUP4 DUP4 DUP4 DUP2 DUP2 LT PUSH2 0x468 JUMPI PUSH2 0x467 PUSH2 0xE0B JUMP JUMPDEST JUMPDEST SWAP1 POP PUSH1 0x20 MUL DUP2 ADD SWAP1 PUSH2 0x47A SWAP2 SWAP1 PUSH2 0xE49 JUMP JUMPDEST PUSH1 0x0 ADD CALLDATALOAD DUP5 DUP5 DUP5 DUP2 DUP2 LT PUSH2 0x491 JUMPI PUSH2 0x490 PUSH2 0xE0B JUMP JUMPDEST JUMPDEST SWAP1 POP PUSH1 0x20 MUL DUP2 ADD SWAP1 PUSH2 0x4A3 SWAP2 SWAP1 PUSH2 0xE49 JUMP JUMPDEST PUSH1 0x20 ADD PUSH1 0x20 DUP2 ADD SWAP1 PUSH2 0x4B5 SWAP2 SWAP1 PUSH2 0xED4 JUMP JUMPDEST PUSH20 0xFFFFFFFFFFFFFFFFFFFFFFFFFFFFFFFFFFFFFFFF AND PUSH32 0x6667A5304245BCC169B30106ECB2562E762581332B1BD7BA8FFE21A897FE06A1 DUP7 DUP7 DUP7 DUP2 DUP2 LT PUSH2 0x4FF JUMPI PUSH2 0x4FE PUSH2 0xE0B JUMP JUMPDEST JUMPDEST SWAP1 POP PUSH1 0x20 MUL DUP2 ADD SWAP1 PUSH2 0x511 SWAP2 SWAP1 PUSH2 0xE49 JUMP JUMPDEST DUP1 PUSH1 0x40 ADD SWAP1 PUSH2 0x520 SWAP2 SWAP1 PUSH2 0xE71 JUMP JUMPDEST PUSH1 0x40 MLOAD PUSH2 0x52E SWAP3 SWAP2 SWAP1 PUSH2 0x11EA JUMP JUMPDEST PUSH1 0x40 MLOAD DUP1 SWAP2 SUB SWAP1 LOG3 POP DUP1 DUP1 PUSH2 0x542 SWAP1 PUSH2 0x123D JUMP JUMPDEST SWAP2 POP POP PUSH2 0x22B JUMP JUMPDEST POP POP POP JUMP JUMPDEST PUSH1 0x60 DUP1 PUSH1 0x0 JUMPDEST DUP6 DUP6 SWAP1 POP DUP2 LT ISZERO PUSH2 0x77E JUMPI PUSH1 0x0 DUP1 PUSH1 0x0 DUP9 DUP9 DUP6 DUP2 DUP2 LT PUSH2 0x578 JUMPI PUSH2 0x577 PUSH2 0xE0B JUMP JUMPDEST JUMPDEST SWAP1 POP PUSH1 0x20 MUL ADD PUSH1 0x20 DUP2 ADD SWAP1 PUSH2 0x58D SWAP2 SWAP1 PUSH2 0xED4 JUMP JUMPDEST PUSH20 0xFFFFFFFFFFFFFFFFFFFFFFFFFFFFFFFFFFFFFFFF AND PUSH20 0xFFFFFFFFFFFFFFFFFFFFFFFFFFFFFFFFFFFFFFFF AND DUP2 MSTORE PUSH1 0x20 ADD SWAP1 DUP2 MSTORE PUSH1 0x20 ADD PUSH1 0x0 KECCAK256 PUSH1 0x0 DUP7 DUP2 MSTORE PUSH1 0x20 ADD SWAP1 DUP2 MSTORE PUSH1 0x20 ADD PUSH1 0x0 KECCAK256 DUP1 SLOAD DUP1 PUSH1 0x20 MUL PUSH1 0x20 ADD PUSH1 0x40 MLOAD SWAP1 DUP2 ADD PUSH1 0x40 MSTORE DUP1 SWAP3 SWAP2 SWAP1 DUP2 DUP2 MSTORE PUSH1 0x20 ADD PUSH1 0x0 SWAP1 JUMPDEST DUP3 DUP3 LT ISZERO PUSH2 0x758 JUMPI DUP4 DUP3 SWAP1 PUSH1 0x0 MSTORE PUSH1 0x20 PUSH1 0x0 KECCAK256 SWAP1 PUSH1 0x3 MUL ADD PUSH1 0x40 MLOAD DUP1 PUSH1 0x60 ADD PUSH1 0x40 MSTORE SWAP1 DUP2 PUSH1 0x0 DUP3 ADD SLOAD DUP2 MSTORE PUSH1 0x20 ADD PUSH1 0x1 DUP3 ADD DUP1 SLOAD PUSH2 0x635 SWAP1 PUSH2 0xDDA JUMP JUMPDEST DUP1 PUSH1 0x1F ADD PUSH1 0x20 DUP1 SWAP2 DIV MUL PUSH1 0x20 ADD PUSH1 0x40 MLOAD SWAP1 DUP2 ADD PUSH1 0x40 MSTORE DUP1 SWAP3 SWAP2 SWAP1 DUP2 DUP2 MSTORE PUSH1 0x20 ADD DUP3 DUP1 SLOAD PUSH2 0x661 SWAP1 PUSH2 0xDDA JUMP JUMPDEST DUP1 ISZERO PUSH2 0x6AE JUMPI DUP1 PUSH1 0x1F LT PUSH2 0x683 JUMPI PUSH2 0x100 DUP1 DUP4 SLOAD DIV MUL DUP4 MSTORE SWAP2 PUSH1 0x20 ADD SWAP2 PUSH2 0x6AE JUMP JUMPDEST DUP3 ADD SWAP2 SWAP1 PUSH1 0x0 MSTORE PUSH1 0x20 PUSH1 0x0 KECCAK256 SWAP1 JUMPDEST DUP2 SLOAD DUP2 MSTORE SWAP1 PUSH1 0x1 ADD SWAP1 PUSH1 0x20 ADD DUP1 DUP4 GT PUSH2 0x691 JUMPI DUP3 SWAP1 SUB PUSH1 0x1F AND DUP3 ADD SWAP2 JUMPDEST POP POP POP POP POP DUP2 MSTORE PUSH1 0x20 ADD PUSH1 0x2 DUP3 ADD DUP1 SLOAD PUSH2 0x6C7 SWAP1 PUSH2 0xDDA JUMP JUMPDEST DUP1 PUSH1 0x1F ADD PUSH1 0x20 DUP1 SWAP2 DIV MUL PUSH1 0x20 ADD PUSH1 0x40 MLOAD SWAP1 DUP2 ADD PUSH1 0x40 MSTORE DUP1 SWAP3 SWAP2 SWAP1 DUP2 DUP2 MSTORE PUSH1 0x20 ADD DUP3 DUP1 SLOAD PUSH2 0x6F3 SWAP1 PUSH2 0xDDA JUMP JUMPDEST DUP1 ISZERO PUSH2 0x740 JUMPI DUP1 PUSH1 0x1F LT PUSH2 0x715 JUMPI PUSH2 0x100 DUP1 DUP4 SLOAD DIV MUL DUP4 MSTORE SWAP2 PUSH1 0x20 ADD SWAP2 PUSH2 0x740 JUMP JUMPDEST DUP3 ADD SWAP2 SWAP1 PUSH1 0x0 MSTORE PUSH1 0x20 PUSH1 0x0 KECCAK256 SWAP1 JUMPDEST DUP2 SLOAD DUP2 MSTORE SWAP1 PUSH1 0x1 ADD SWAP1 PUSH1 0x20 ADD DUP1 DUP4 GT PUSH2 0x723 JUMPI DUP3 SWAP1 SUB PUSH1 0x1F AND DUP3 ADD SWAP2 JUMPDEST POP POP POP POP POP DUP2 MSTORE POP POP DUP2 MSTORE PUSH1 0x20 ADD SWAP1 PUSH1 0x1 ADD SWAP1 PUSH2 0x5F8 JUMP JUMPDEST POP POP POP POP SWAP1 POP PUSH2 0x768 DUP4 DUP3 PUSH2 0x78A JUMP JUMPDEST SWAP3 POP POP DUP1 DUP1 PUSH2 0x776 SWAP1 PUSH2 0x123D JUMP JUMPDEST SWAP2 POP POP PUSH2 0x555 JUMP JUMPDEST POP DUP1 SWAP2 POP POP SWAP4 SWAP3 POP POP POP JUMP JUMPDEST PUSH1 0x60 PUSH1 0x0 DUP3 MLOAD DUP5 MLOAD PUSH2 0x79C SWAP2 SWAP1 PUSH2 0x1285 JUMP JUMPDEST PUSH8 0xFFFFFFFFFFFFFFFF DUP2 GT ISZERO PUSH2 0x7B5 JUMPI PUSH2 0x7B4 PUSH2 0xF01 JUMP JUMPDEST JUMPDEST PUSH1 0x40 MLOAD SWAP1 DUP1 DUP3 MSTORE DUP1 PUSH1 0x20 MUL PUSH1 0x20 ADD DUP3 ADD PUSH1 0x40 MSTORE DUP1 ISZERO PUSH2 0x7EE JUMPI DUP2 PUSH1 0x20 ADD JUMPDEST PUSH2 0x7DB PUSH2 0x8B9 JUMP JUMPDEST DUP2 MSTORE PUSH1 0x20 ADD SWAP1 PUSH1 0x1 SWAP1 SUB SWAP1 DUP2 PUSH2 0x7D3 JUMPI SWAP1 POP JUMPDEST POP SWAP1 POP PUSH1 0x0 JUMPDEST DUP5 MLOAD DUP2 LT ISZERO PUSH2 0x849 JUMPI DUP5 DUP2 DUP2 MLOAD DUP2 LT PUSH2 0x810 JUMPI PUSH2 0x80F PUSH2 0xE0B JUMP JUMPDEST JUMPDEST PUSH1 0x20 MUL PUSH1 0x20 ADD ADD MLOAD DUP3 DUP3 DUP2 MLOAD DUP2 LT PUSH2 0x82B JUMPI PUSH2 0x82A PUSH2 0xE0B JUMP JUMPDEST JUMPDEST PUSH1 0x20 MUL PUSH1 0x20 ADD ADD DUP2 SWAP1 MSTORE POP DUP1 DUP1 PUSH2 0x841 SWAP1 PUSH2 0x123D JUMP JUMPDEST SWAP2 POP POP PUSH2 0x7F4 JUMP JUMPDEST POP PUSH1 0x0 JUMPDEST DUP4 MLOAD DUP2 LT ISZERO PUSH2 0x8AE JUMPI DUP4 DUP2 DUP2 MLOAD DUP2 LT PUSH2 0x869 JUMPI PUSH2 0x868 PUSH2 0xE0B JUMP JUMPDEST JUMPDEST PUSH1 0x20 MUL PUSH1 0x20 ADD ADD MLOAD DUP3 DUP3 DUP8 MLOAD PUSH2 0x87F SWAP2 SWAP1 PUSH2 0x1285 JUMP JUMPDEST DUP2 MLOAD DUP2 LT PUSH2 0x890 JUMPI PUSH2 0x88F PUSH2 0xE0B JUMP JUMPDEST JUMPDEST PUSH1 0x20 MUL PUSH1 0x20 ADD ADD DUP2 SWAP1 MSTORE POP DUP1 DUP1 PUSH2 0x8A6 SWAP1 PUSH2 0x123D JUMP JUMPDEST SWAP2 POP POP PUSH2 0x84D JUMP JUMPDEST POP DUP1 SWAP2 POP POP SWAP3 SWAP2 POP POP JUMP JUMPDEST PUSH1 0x40 MLOAD DUP1 PUSH1 0x60 ADD PUSH1 0x40 MSTORE DUP1 PUSH1 0x0 DUP2 MSTORE PUSH1 0x20 ADD PUSH1 0x60 DUP2 MSTORE PUSH1 0x20 ADD PUSH1 0x60 DUP2 MSTORE POP SWAP1 JUMP JUMPDEST PUSH1 0x0 DUP1 REVERT JUMPDEST PUSH1 0x0 DUP1 REVERT JUMPDEST PUSH1 0x0 PUSH20 0xFFFFFFFFFFFFFFFFFFFFFFFFFFFFFFFFFFFFFFFF DUP3 AND SWAP1 POP SWAP2 SWAP1 POP JUMP JUMPDEST PUSH1 0x0 PUSH2 0x90F DUP3 PUSH2 0x8E4 JUMP JUMPDEST SWAP1 POP SWAP2 SWAP1 POP JUMP JUMPDEST PUSH2 0x91F DUP2 PUSH2 0x904 JUMP JUMPDEST DUP2 EQ PUSH2 0x92A JUMPI PUSH1 0x0 DUP1 REVERT JUMPDEST POP JUMP JUMPDEST PUSH1 0x0 DUP2 CALLDATALOAD SWAP1 POP PUSH2 0x93C DUP2 PUSH2 0x916 JUMP JUMPDEST SWAP3 SWAP2 POP POP JUMP JUMPDEST PUSH1 0x0 DUP2 SWAP1 POP SWAP2 SWAP1 POP JUMP JUMPDEST PUSH2 0x955 DUP2 PUSH2 0x942 JUMP JUMPDEST DUP2 EQ PUSH2 0x960 JUMPI PUSH1 0x0 DUP1 REVERT JUMPDEST POP JUMP JUMPDEST PUSH1 0x0 DUP2 CALLDATALOAD SWAP1 POP PUSH2 0x972 DUP2 PUSH2 0x94C JUMP JUMPDEST SWAP3 SWAP2 POP POP JUMP JUMPDEST PUSH1 0x0 DUP1 PUSH1 0x0 PUSH1 0x60 DUP5 DUP7 SUB SLT ISZERO PUSH2 0x991 JUMPI PUSH2 0x990 PUSH2 0x8DA JUMP JUMPDEST JUMPDEST PUSH1 0x0 PUSH2 0x99F DUP7 DUP3 DUP8 ADD PUSH2 0x92D JUMP JUMPDEST SWAP4 POP POP PUSH1 0x20 PUSH2 0x9B0 DUP7 DUP3 DUP8 ADD PUSH2 0x963 JUMP JUMPDEST SWAP3 POP POP PUSH1 0x40 PUSH2 0x9C1 DUP7 DUP3 DUP8 ADD PUSH2 0x963 JUMP JUMPDEST SWAP2 POP POP SWAP3 POP SWAP3 POP SWAP3 JUMP JUMPDEST PUSH2 0x9D4 DUP2 PUSH2 0x942 JUMP JUMPDEST DUP3 MSTORE POP POP JUMP JUMPDEST PUSH1 0x0 DUP2 MLOAD SWAP1 POP SWAP2 SWAP1 POP JUMP JUMPDEST PUSH1 0x0 DUP3 DUP3 MSTORE PUSH1 0x20 DUP3 ADD SWAP1 POP SWAP3 SWAP2 POP POP JUMP JUMPDEST PUSH1 0x0 JUMPDEST DUP4 DUP2 LT ISZERO PUSH2 0xA14 JUMPI DUP1 DUP3 ADD MLOAD DUP2 DUP5 ADD MSTORE PUSH1 0x20 DUP2 ADD SWAP1 POP PUSH2 0x9F9 JUMP JUMPDEST PUSH1 0x0 DUP5 DUP5 ADD MSTORE POP POP POP POP JUMP JUMPDEST PUSH1 0x0 PUSH1 0x1F NOT PUSH1 0x1F DUP4 ADD AND SWAP1 POP SWAP2 SWAP1 POP JUMP JUMPDEST PUSH1 0x0 PUSH2 0xA3C DUP3 PUSH2 0x9DA JUMP JUMPDEST PUSH2 0xA46 DUP2 DUP6 PUSH2 0x9E5 JUMP JUMPDEST SWAP4 POP PUSH2 0xA56 DUP2 DUP6 PUSH1 0x20 DUP7 ADD PUSH2 0x9F6 JUMP JUMPDEST PUSH2 0xA5F DUP2 PUSH2 0xA20 JUMP JUMPDEST DUP5 ADD SWAP2 POP POP SWAP3 SWAP2 POP POP JUMP JUMPDEST PUSH1 0x0 PUSH1 0x60 DUP3 ADD SWAP1 POP PUSH2 0xA7F PUSH1 0x0 DUP4 ADD DUP7 PUSH2 0x9CB JUMP JUMPDEST DUP2 DUP2 SUB PUSH1 0x20 DUP4 ADD MSTORE PUSH2 0xA91 DUP2 DUP6 PUSH2 0xA31 JUMP JUMPDEST SWAP1 POP DUP2 DUP2 SUB PUSH1 0x40 DUP4 ADD MSTORE PUSH2 0xAA5 DUP2 DUP5 PUSH2 0xA31 JUMP JUMPDEST SWAP1 POP SWAP5 SWAP4 POP POP POP POP JUMP JUMPDEST PUSH1 0x0 DUP1 REVERT JUMPDEST PUSH1 0x0 DUP1 REVERT JUMPDEST PUSH1 0x0 DUP1 REVERT JUMPDEST PUSH1 0x0 DUP1 DUP4 PUSH1 0x1F DUP5 ADD SLT PUSH2 0xAD4 JUMPI PUSH2 0xAD3 PUSH2 0xAAF JUMP JUMPDEST JUMPDEST DUP3 CALLDATALOAD SWAP1 POP PUSH8 0xFFFFFFFFFFFFFFFF DUP2 GT ISZERO PUSH2 0xAF1 JUMPI PUSH2 0xAF0 PUSH2 0xAB4 JUMP JUMPDEST JUMPDEST PUSH1 0x20 DUP4 ADD SWAP2 POP DUP4 PUSH1 0x20 DUP3 MUL DUP4 ADD GT ISZERO PUSH2 0xB0D JUMPI PUSH2 0xB0C PUSH2 0xAB9 JUMP JUMPDEST JUMPDEST SWAP3 POP SWAP3 SWAP1 POP JUMP JUMPDEST PUSH1 0x0 DUP1 PUSH1 0x20 DUP4 DUP6 SUB SLT ISZERO PUSH2 0xB2B JUMPI PUSH2 0xB2A PUSH2 0x8DA JUMP JUMPDEST JUMPDEST PUSH1 0x0 DUP4 ADD CALLDATALOAD PUSH8 0xFFFFFFFFFFFFFFFF DUP2 GT ISZERO PUSH2 0xB49 JUMPI PUSH2 0xB48 PUSH2 0x8DF JUMP JUMPDEST JUMPDEST PUSH2 0xB55 DUP6 DUP3 DUP7 ADD PUSH2 0xABE JUMP JUMPDEST SWAP3 POP SWAP3 POP POP SWAP3 POP SWAP3 SWAP1 POP JUMP JUMPDEST PUSH1 0x0 DUP1 DUP4 PUSH1 0x1F DUP5 ADD SLT PUSH2 0xB77 JUMPI PUSH2 0xB76 PUSH2 0xAAF JUMP JUMPDEST JUMPDEST DUP3 CALLDATALOAD SWAP1 POP PUSH8 0xFFFFFFFFFFFFFFFF DUP2 GT ISZERO PUSH2 0xB94 JUMPI PUSH2 0xB93 PUSH2 0xAB4 JUMP JUMPDEST JUMPDEST PUSH1 0x20 DUP4 ADD SWAP2 POP DUP4 PUSH1 0x20 DUP3 MUL DUP4 ADD GT ISZERO PUSH2 0xBB0 JUMPI PUSH2 0xBAF PUSH2 0xAB9 JUMP JUMPDEST JUMPDEST SWAP3 POP SWAP3 SWAP1 POP JUMP JUMPDEST PUSH1 0x0 DUP1 PUSH1 0x0 PUSH1 0x40 DUP5 DUP7 SUB SLT ISZERO PUSH2 0xBD0 JUMPI PUSH2 0xBCF PUSH2 0x8DA JUMP JUMPDEST JUMPDEST PUSH1 0x0 DUP5 ADD CALLDATALOAD PUSH8 0xFFFFFFFFFFFFFFFF DUP2 GT ISZERO PUSH2 0xBEE JUMPI PUSH2 0xBED PUSH2 0x8DF JUMP JUMPDEST JUMPDEST PUSH2 0xBFA DUP7 DUP3 DUP8 ADD PUSH2 0xB61 JUMP JUMPDEST SWAP4 POP SWAP4 POP POP PUSH1 0x20 PUSH2 0xC0D DUP7 DUP3 DUP8 ADD PUSH2 0x963 JUMP JUMPDEST SWAP2 POP POP SWAP3 POP SWAP3 POP SWAP3 JUMP JUMPDEST PUSH1 0x0 DUP2 MLOAD SWAP1 POP SWAP2 SWAP1 POP JUMP JUMPDEST PUSH1 0x0 DUP3 DUP3 MSTORE PUSH1 0x20 DUP3 ADD SWAP1 POP SWAP3 SWAP2 POP POP JUMP JUMPDEST PUSH1 0x0 DUP2 SWAP1 POP PUSH1 0x20 DUP3 ADD SWAP1 POP SWAP2 SWAP1 POP JUMP JUMPDEST PUSH2 0xC4C DUP2 PUSH2 0x942 JUMP JUMPDEST DUP3 MSTORE POP POP JUMP JUMPDEST PUSH1 0x0 DUP3 DUP3 MSTORE PUSH1 0x20 DUP3 ADD SWAP1 POP SWAP3 SWAP2 POP POP JUMP JUMPDEST PUSH1 0x0 PUSH2 0xC6E DUP3 PUSH2 0x9DA JUMP JUMPDEST PUSH2 0xC78 DUP2 DUP6 PUSH2 0xC52 JUMP JUMPDEST SWAP4 POP PUSH2 0xC88 DUP2 DUP6 PUSH1 0x20 DUP7 ADD PUSH2 0x9F6 JUMP JUMPDEST PUSH2 0xC91 DUP2 PUSH2 0xA20 JUMP JUMPDEST DUP5 ADD SWAP2 POP POP SWAP3 SWAP2 POP POP JUMP JUMPDEST PUSH1 0x0 PUSH1 0x60 DUP4 ADD PUSH1 0x0 DUP4 ADD MLOAD PUSH2 0xCB4 PUSH1 0x0 DUP7 ADD DUP3 PUSH2 0xC43 JUMP JUMPDEST POP PUSH1 0x20 DUP4 ADD MLOAD DUP5 DUP3 SUB PUSH1 0x20 DUP7 ADD MSTORE PUSH2 0xCCC DUP3 DUP3 PUSH2 0xC63 JUMP JUMPDEST SWAP2 POP POP PUSH1 0x40 DUP4 ADD MLOAD DUP5 DUP3 SUB PUSH1 0x40 DUP7 ADD MSTORE PUSH2 0xCE6 DUP3 DUP3 PUSH2 0xC63 JUMP JUMPDEST SWAP2 POP POP DUP1 SWAP2 POP POP SWAP3 SWAP2 POP POP JUMP JUMPDEST PUSH1 0x0 PUSH2 0xCFF DUP4 DUP4 PUSH2 0xC9C JUMP JUMPDEST SWAP1 POP SWAP3 SWAP2 POP POP JUMP JUMPDEST PUSH1 0x0 PUSH1 0x20 DUP3 ADD SWAP1 POP SWAP2 SWAP1 POP JUMP JUMPDEST PUSH1 0x0 PUSH2 0xD1F DUP3 PUSH2 0xC17 JUMP JUMPDEST PUSH2 0xD29 DUP2 DUP6 PUSH2 0xC22 JUMP JUMPDEST SWAP4 POP DUP4 PUSH1 0x20 DUP3 MUL DUP6 ADD PUSH2 0xD3B DUP6 PUSH2 0xC33 JUMP JUMPDEST DUP1 PUSH1 0x0 JUMPDEST DUP6 DUP2 LT ISZERO PUSH2 0xD77 JUMPI DUP5 DUP5 SUB DUP10 MSTORE DUP2 MLOAD PUSH2 0xD58 DUP6 DUP3 PUSH2 0xCF3 JUMP JUMPDEST SWAP5 POP PUSH2 0xD63 DUP4 PUSH2 0xD07 JUMP JUMPDEST SWAP3 POP PUSH1 0x20 DUP11 ADD SWAP10 POP POP PUSH1 0x1 DUP2 ADD SWAP1 POP PUSH2 0xD3F JUMP JUMPDEST POP DUP3 SWAP8 POP DUP8 SWAP6 POP POP POP POP POP POP SWAP3 SWAP2 POP POP JUMP JUMPDEST PUSH1 0x0 PUSH1 0x20 DUP3 ADD SWAP1 POP DUP2 DUP2 SUB PUSH1 0x0 DUP4 ADD MSTORE PUSH2 0xDA3 DUP2 DUP5 PUSH2 0xD14 JUMP JUMPDEST SWAP1 POP SWAP3 SWAP2 POP POP JUMP JUMPDEST PUSH32 0x4E487B7100000000000000000000000000000000000000000000000000000000 PUSH1 0x0 MSTORE PUSH1 0x22 PUSH1 0x4 MSTORE PUSH1 0x24 PUSH1 0x0 REVERT JUMPDEST PUSH1 0x0 PUSH1 0x2 DUP3 DIV SWAP1 POP PUSH1 0x1 DUP3 AND DUP1 PUSH2 0xDF2 JUMPI PUSH1 0x7F DUP3 AND SWAP2 POP JUMPDEST PUSH1 0x20 DUP3 LT DUP2 SUB PUSH2 0xE05 JUMPI PUSH2 0xE04 PUSH2 0xDAB JUMP JUMPDEST JUMPDEST POP SWAP2 SWAP1 POP JUMP JUMPDEST PUSH32 0x4E487B7100000000000000000000000000000000000000000000000000000000 PUSH1 0x0 MSTORE PUSH1 0x32 PUSH1 0x4 MSTORE PUSH1 0x24 PUSH1 0x0 REVERT JUMPDEST PUSH1 0x0 DUP1 REVERT JUMPDEST PUSH1 0x0 DUP1 REVERT JUMPDEST PUSH1 0x0 DUP1 REVERT JUMPDEST PUSH1 0x0 DUP3 CALLDATALOAD PUSH1 0x1 PUSH1 0x80 SUB DUP4 CALLDATASIZE SUB SUB DUP2 SLT PUSH2 0xE65 JUMPI PUSH2 0xE64 PUSH2 0xE3A JUMP JUMPDEST JUMPDEST DUP1 DUP4 ADD SWAP2 POP POP SWAP3 SWAP2 POP POP JUMP JUMPDEST PUSH1 0x0 DUP1 DUP4 CALLDATALOAD PUSH1 0x1 PUSH1 0x20 SUB DUP5 CALLDATASIZE SUB SUB DUP2 SLT PUSH2 0xE8E JUMPI PUSH2 0xE8D PUSH2 0xE3A JUMP JUMPDEST JUMPDEST DUP1 DUP5 ADD SWAP3 POP DUP3 CALLDATALOAD SWAP2 POP PUSH8 0xFFFFFFFFFFFFFFFF DUP3 GT ISZERO PUSH2 0xEB0 JUMPI PUSH2 0xEAF PUSH2 0xE3F JUMP JUMPDEST JUMPDEST PUSH1 0x20 DUP4 ADD SWAP3 POP PUSH1 0x1 DUP3 MUL CALLDATASIZE SUB DUP4 SGT ISZERO PUSH2 0xECC JUMPI PUSH2 0xECB PUSH2 0xE44 JUMP JUMPDEST JUMPDEST POP SWAP3 POP SWAP3 SWAP1 POP JUMP JUMPDEST PUSH1 0x0 PUSH1 0x20 DUP3 DUP5 SUB SLT ISZERO PUSH2 0xEEA JUMPI PUSH2 0xEE9 PUSH2 0x8DA JUMP JUMPDEST JUMPDEST PUSH1 0x0 PUSH2 0xEF8 DUP5 DUP3 DUP6 ADD PUSH2 0x92D JUMP JUMPDEST SWAP2 POP POP SWAP3 SWAP2 POP POP JUMP JUMPDEST PUSH32 0x4E487B7100000000000000000000000000000000000000000000000000000000 PUSH1 0x0 MSTORE PUSH1 0x41 PUSH1 0x4 MSTORE PUSH1 0x24 PUSH1 0x0 REVERT JUMPDEST PUSH1 0x0 DUP2 SWAP1 POP DUP2 PUSH1 0x0 MSTORE PUSH1 0x20 PUSH1 0x0 KECCAK256 SWAP1 POP SWAP2 SWAP1 POP JUMP JUMPDEST PUSH1 0x0 PUSH1 0x20 PUSH1 0x1F DUP4 ADD DIV SWAP1 POP SWAP2 SWAP1 POP JUMP JUMPDEST PUSH1 0x0 DUP3 DUP3 SHL SWAP1 POP SWAP3 SWAP2 POP POP JUMP JUMPDEST PUSH1 0x0 PUSH1 0x8 DUP4 MUL PUSH2 0xF92 PUSH32 0xFFFFFFFFFFFFFFFFFFFFFFFFFFFFFFFFFFFFFFFFFFFFFFFFFFFFFFFFFFFFFFFF DUP3 PUSH2 0xF55 JUMP JUMPDEST PUSH2 0xF9C DUP7 DUP4 PUSH2 0xF55 JUMP JUMPDEST SWAP6 POP DUP1 NOT DUP5 AND SWAP4 POP DUP1 DUP7 AND DUP5 OR SWAP3 POP POP POP SWAP4 SWAP3 POP POP POP JUMP JUMPDEST PUSH1 0x0 DUP2 SWAP1 POP SWAP2 SWAP1 POP JUMP JUMPDEST PUSH1 0x0 PUSH2 0xFD9 PUSH2 0xFD4 PUSH2 0xFCF DUP5 PUSH2 0x942 JUMP JUMPDEST PUSH2 0xFB4 JUMP JUMPDEST PUSH2 0x942 JUMP JUMPDEST SWAP1 POP SWAP2 SWAP1 POP JUMP JUMPDEST PUSH1 0x0 DUP2 SWAP1 POP SWAP2 SWAP1 POP JUMP JUMPDEST PUSH2 0xFF3 DUP4 PUSH2 0xFBE JUMP JUMPDEST PUSH2 0x1007 PUSH2 0xFFF DUP3 PUSH2 0xFE0 JUMP JUMPDEST DUP5 DUP5 SLOAD PUSH2 0xF62 JUMP JUMPDEST DUP3 SSTORE POP POP POP POP JUMP JUMPDEST PUSH1 0x0 SWAP1 JUMP JUMPDEST PUSH2 0x101C PUSH2 0x100F JUMP JUMPDEST PUSH2 0x1027 DUP2 DUP5 DUP5 PUSH2 0xFEA JUMP JUMPDEST POP POP POP JUMP JUMPDEST JUMPDEST DUP2 DUP2 LT ISZERO PUSH2 0x104B JUMPI PUSH2 0x1040 PUSH1 0x0 DUP3 PUSH2 0x1014 JUMP JUMPDEST PUSH1 0x1 DUP2 ADD SWAP1 POP PUSH2 0x102D JUMP JUMPDEST POP POP JUMP JUMPDEST PUSH1 0x1F DUP3 GT ISZERO PUSH2 0x1090 JUMPI PUSH2 0x1061 DUP2 PUSH2 0xF30 JUMP JUMPDEST PUSH2 0x106A DUP5 PUSH2 0xF45 JUMP JUMPDEST DUP2 ADD PUSH1 0x20 DUP6 LT ISZERO PUSH2 0x1079 JUMPI DUP2 SWAP1 POP JUMPDEST PUSH2 0x108D PUSH2 0x1085 DUP6 PUSH2 0xF45 JUMP JUMPDEST DUP4 ADD DUP3 PUSH2 0x102C JUMP JUMPDEST POP POP JUMPDEST POP POP POP JUMP JUMPDEST PUSH1 0x0 DUP3 DUP3 SHR SWAP1 POP SWAP3 SWAP2 POP POP JUMP JUMPDEST PUSH1 0x0 PUSH2 0x10B3 PUSH1 0x0 NOT DUP5 PUSH1 0x8 MUL PUSH2 0x1095 JUMP JUMPDEST NOT DUP1 DUP4 AND SWAP2 POP POP SWAP3 SWAP2 POP POP JUMP JUMPDEST PUSH1 0x0 PUSH2 0x10CC DUP4 DUP4 PUSH2 0x10A2 JUMP JUMPDEST SWAP2 POP DUP3 PUSH1 0x2 MUL DUP3 OR SWAP1 POP SWAP3 SWAP2 POP POP JUMP JUMPDEST PUSH2 0x10E5 DUP3 PUSH2 0x9DA JUMP JUMPDEST PUSH8 0xFFFFFFFFFFFFFFFF DUP2 GT ISZERO PUSH2 0x10FE JUMPI PUSH2 0x10FD PUSH2 0xF01 JUMP JUMPDEST JUMPDEST PUSH2 0x1108 DUP3 SLOAD PUSH2 0xDDA JUMP JUMPDEST PUSH2 0x1113 DUP3 DUP3 DUP6 PUSH2 0x104F JUMP JUMPDEST PUSH1 0x0 PUSH1 0x20 SWAP1 POP PUSH1 0x1F DUP4 GT PUSH1 0x1 DUP2 EQ PUSH2 0x1146 JUMPI PUSH1 0x0 DUP5 ISZERO PUSH2 0x1134 JUMPI DUP3 DUP8 ADD MLOAD SWAP1 POP JUMPDEST PUSH2 0x113E DUP6 DUP3 PUSH2 0x10C0 JUMP JUMPDEST DUP7 SSTORE POP PUSH2 0x11A6 JUMP JUMPDEST PUSH1 0x1F NOT DUP5 AND PUSH2 0x1154 DUP7 PUSH2 0xF30 JUMP JUMPDEST PUSH1 0x0 JUMPDEST DUP3 DUP2 LT ISZERO PUSH2 0x117C JUMPI DUP5 DUP10 ADD MLOAD DUP3 SSTORE PUSH1 0x1 DUP3 ADD SWAP2 POP PUSH1 0x20 DUP6 ADD SWAP5 POP PUSH1 0x20 DUP2 ADD SWAP1 POP PUSH2 0x1157 JUMP JUMPDEST DUP7 DUP4 LT ISZERO PUSH2 0x1199 JUMPI DUP5 DUP10 ADD MLOAD PUSH2 0x1195 PUSH1 0x1F DUP10 AND DUP3 PUSH2 0x10A2 JUMP JUMPDEST DUP4 SSTORE POP JUMPDEST PUSH1 0x1 PUSH1 0x2 DUP9 MUL ADD DUP9 SSTORE POP POP POP JUMPDEST POP POP POP POP POP POP JUMP JUMPDEST DUP3 DUP2 DUP4 CALLDATACOPY PUSH1 0x0 DUP4 DUP4 ADD MSTORE POP POP POP JUMP JUMPDEST PUSH1 0x0 PUSH2 0x11C9 DUP4 DUP6 PUSH2 0x9E5 JUMP JUMPDEST SWAP4 POP PUSH2 0x11D6 DUP4 DUP6 DUP5 PUSH2 0x11AE JUMP JUMPDEST PUSH2 0x11DF DUP4 PUSH2 0xA20 JUMP JUMPDEST DUP5 ADD SWAP1 POP SWAP4 SWAP3 POP POP POP JUMP JUMPDEST PUSH1 0x0 PUSH1 0x20 DUP3 ADD SWAP1 POP DUP2 DUP2 SUB PUSH1 0x0 DUP4 ADD MSTORE PUSH2 0x1205 DUP2 DUP5 DUP7 PUSH2 0x11BD JUMP JUMPDEST SWAP1 POP SWAP4 SWAP3 POP POP POP JUMP JUMPDEST PUSH32 0x4E487B7100000000000000000000000000000000000000000000000000000000 PUSH1 0x0 MSTORE PUSH1 0x11 PUSH1 0x4 MSTORE PUSH1 0x24 PUSH1 0x0 REVERT JUMPDEST PUSH1 0x0 PUSH2 0x1248 DUP3 PUSH2 0x942 JUMP JUMPDEST SWAP2 POP PUSH32 0xFFFFFFFFFFFFFFFFFFFFFFFFFFFFFFFFFFFFFFFFFFFFFFFFFFFFFFFFFFFFFFFF DUP3 SUB PUSH2 0x127A JUMPI PUSH2 0x1279 PUSH2 0x120E JUMP JUMPDEST JUMPDEST PUSH1 0x1 DUP3 ADD SWAP1 POP SWAP2 SWAP1 POP JUMP JUMPDEST PUSH1 0x0 PUSH2 0x1290 DUP3 PUSH2 0x942 JUMP JUMPDEST SWAP2 POP PUSH2 0x129B DUP4 PUSH2 0x942 JUMP JUMPDEST SWAP3 POP DUP3 DUP3 ADD SWAP1 POP DUP1 DUP3 GT ISZERO PUSH2 0x12B3 JUMPI PUSH2 0x12B2 PUSH2 0x120E JUMP JUMPDEST JUMPDEST SWAP3 SWAP2 POP POP JUMP INVALID LOG2 PUSH5 0x6970667358 0x22 SLT KECCAK256 0xC2 SWAP11 DUP2 0xCE 0xB4 0x28 0xDE 0xF7 0xD9 DUP3 0x2B MLOAD 0x4A JUMP 0x26 CODESIZE 0xDE 0xCF 0xFC 0xEC MLOAD 0xB9 PUSH5 0x58528BC9D5 SWAP2 0xCE KECCAK256 CALL PUSH5 0x736F6C6343 STOP ADDMOD SGT STOP CALLER "},"methodIdentifiers":{"fridgesByUploader(address,uint256,uint256)":"107b4799","getAllDataByMultipleUploaders(address[],uint256)":"feaefa90","saveDataBatch((uint256,address,string,string)[])":"37e4d153"}}}}}