{
  "_format": "hh-sol-artifact-1",
  "contractName": "myFridge",
  "sourceName": "contracts/FridgeSensors.sol",
  "abi": [
    {
      "inputs": [
        {
          "internalType": "uint256",
          "name": "",
          "type": "uint256"
        },
        {
          "internalType": "uint256",
          "name": "",
          "type": "uint256"
        }
      ],
      "name": "fridges",
      "outputs": [
        {
          "internalType": "uint256",
          "name": "timestamp",
          "type": "uint256"
        },
        {
          "internalType": "uint256",
          "name": "temperature",
          "type": "uint256"
        },
        {
          "internalType": "uint256",
          "name": "humidity",
          "type": "uint256"
        }
      ],
      "stateMutability": "view",
      "type": "function"
    },
    {
      "inputs": [
        {
          "internalType": "uint256",
          "name": "fridge_id",
          "type": "uint256"
        }
      ],
      "name": "getAllData",
      "outputs": [
        {
          "components": [
            {
              "internalType": "uint256",
              "name": "timestamp",
              "type": "uint256"
            },
            {
              "internalType": "uint256",
              "name": "temperature",
              "type": "uint256"
            },
            {
              "internalType": "uint256",
              "name": "humidity",
              "type": "uint256"
            }
          ],
          "internalType": "struct myFridge.SensorData[]",
          "name": "",
          "type": "tuple[]"
        }
      ],
      "stateMutability": "view",
      "type": "function"
    },
    {
      "inputs": [
        {
          "internalType": "uint256",
          "name": "fridge_id",
          "type": "uint256"
        },
        {
          "internalType": "uint256",
          "name": "_temperature",
          "type": "uint256"
        },
        {
          "internalType": "uint256",
          "name": "_humidity",
          "type": "uint256"
        }
      ],
      "name": "saveData",
      "outputs": [],
      "stateMutability": "nonpayable",
      "type": "function"
    },
    {
      "inputs": [
        {
          "components": [
            {
              "internalType": "uint256",
              "name": "fridge_id",
              "type": "uint256"
            },
            {
              "internalType": "uint256",
              "name": "temperature",
              "type": "uint256"
            },
            {
              "internalType": "uint256",
              "name": "humidity",
              "type": "uint256"
            }
          ],
          "internalType": "struct myFridge.Data[]",
          "name": "data",
          "type": "tuple[]"
        }
      ],
      "name": "saveDataBatch",
      "outputs": [],
      "stateMutability": "nonpayable",
      "type": "function"
    }
  ],
  "bytecode": "0x608060405234801561001057600080fd5b5061075d806100206000396000f3fe608060405234801561001057600080fd5b506004361061004c5760003560e01c806316aa136e1461005157806330c20d5a1461008157806348f12a30146100b3578063ae9244b1146100cf575b600080fd5b61006b600480360381019061006691906103a7565b6100eb565b60405161007891906104d4565b60405180910390f35b61009b600480360381019061009691906104f6565b61017a565b6040516100aa93929190610545565b60405180910390f35b6100cd60048036038101906100c8919061057c565b6101c1565b005b6100e960048036038101906100e49190610634565b610249565b005b6060600080838152602001908152602001600020805480602002602001604051908101604052809291908181526020016000905b8282101561016f578382906000526020600020906003020160405180606001604052908160008201548152602001600182015481526020016002820154815250508152602001906001019061011f565b505050509050919050565b6000602052816000526040600020818154811061019657600080fd5b9060005260206000209060030201600091509150508060000154908060010154908060020154905083565b6101c9610346565b428160000181815250508281602001818152505081816040018181525050600080858152602001908152602001600020819080600181540180825580915050600190039060005260206000209060030201600090919091909150600082015181600001556020820151816001015560408201518160020155505050505050565b60005b828290508110156103415761025f610346565b4281600001818152505083838381811061027c5761027b610681565b5b905060600201602001358160200181815250508383838181106102a2576102a1610681565b5b905060600201604001358160400181815250506000808585858181106102cb576102ca610681565b5b9050606002016000013581526020019081526020016000208190806001815401808255809150506001900390600052602060002090600302016000909190919091506000820151816000015560208201518160010155604082015181600201555050508080610339906106df565b91505061024c565b505050565b60405180606001604052806000815260200160008152602001600081525090565b600080fd5b600080fd5b6000819050919050565b61038481610371565b811461038f57600080fd5b50565b6000813590506103a18161037b565b92915050565b6000602082840312156103bd576103bc610367565b5b60006103cb84828501610392565b91505092915050565b600081519050919050565b600082825260208201905092915050565b6000819050602082019050919050565b61040981610371565b82525050565b6060820160008201516104256000850182610400565b5060208201516104386020850182610400565b50604082015161044b6040850182610400565b50505050565b600061045d838361040f565b60608301905092915050565b6000602082019050919050565b6000610481826103d4565b61048b81856103df565b9350610496836103f0565b8060005b838110156104c75781516104ae8882610451565b97506104b983610469565b92505060018101905061049a565b5085935050505092915050565b600060208201905081810360008301526104ee8184610476565b905092915050565b6000806040838503121561050d5761050c610367565b5b600061051b85828601610392565b925050602061052c85828601610392565b9150509250929050565b61053f81610371565b82525050565b600060608201905061055a6000830186610536565b6105676020830185610536565b6105746040830184610536565b949350505050565b60008060006060848603121561059557610594610367565b5b60006105a386828701610392565b93505060206105b486828701610392565b92505060406105c586828701610392565b9150509250925092565b600080fd5b600080fd5b600080fd5b60008083601f8401126105f4576105f36105cf565b5b8235905067ffffffffffffffff811115610611576106106105d4565b5b60208301915083606082028301111561062d5761062c6105d9565b5b9250929050565b6000806020838503121561064b5761064a610367565b5b600083013567ffffffffffffffff8111156106695761066861036c565b5b610675858286016105de565b92509250509250929050565b7f4e487b7100000000000000000000000000000000000000000000000000000000600052603260045260246000fd5b7f4e487b7100000000000000000000000000000000000000000000000000000000600052601160045260246000fd5b60006106ea82610371565b91507fffffffffffffffffffffffffffffffffffffffffffffffffffffffffffffffff820361071c5761071b6106b0565b5b60018201905091905056fea264697066735822122034c40edddea98bf66e8f91a874f100fd11cc1f6b18a3f18c801416794b84537964736f6c63430008130033",
  "linkReferences": {},
  "deployedLinkReferences": {}
}