{
  "_format": "hh-sol-artifact-1",
  "contractName": "Fridge",
  "sourceName": "contracts/Fridge.sol",
  "abi": [
    {
      "inputs": [
        {
          "internalType": "address",
          "name": "",
          "type": "address"
        },
        {
          "internalType": "uint256",
          "name": "",
          "type": "uint256"
        },
        {
          "internalType": "uint256",
          "name": "",
          "type": "uint256"
        }
      ],
      "name": "fridgesByUploader",
      "outputs": [
        {
          "internalType": "uint256",
          "name": "timestamp",
          "type": "uint256"
        },
        {
          "internalType": "string",
          "name": "ipfsHash",
          "type": "string"
        },
        {
          "internalType": "string",
          "name": "txHash",
          "type": "string"
        }
      ],
      "stateMutability": "view",
      "type": "function"
    },
    {
      "inputs": [
        {
          "internalType": "address[]",
          "name": "uploaders",
          "type": "address[]"
        },
        {
          "internalType": "uint256",
          "name": "fridge_id",
          "type": "uint256"
        }
      ],
      "name": "getAllDataByMultipleUploaders",
      "outputs": [
        {
          "components": [
            {
              "internalType": "uint256",
              "name": "timestamp",
              "type": "uint256"
            },
            {
              "internalType": "string",
              "name": "ipfsHash",
              "type": "string"
            },
            {
              "internalType": "string",
              "name": "txHash",
              "type": "string"
            }
          ],
          "internalType": "struct Fridge.Data[]",
          "name": "",
          "type": "tuple[]"
        }
      ],
      "stateMutability": "view",
      "type": "function"
    },
    {
      "inputs": [
        {
          "components": [
            {
              "internalType": "uint256",
              "name": "fridge_id",
              "type": "uint256"
            },
            {
              "internalType": "uint256",
              "name": "timestamp",
              "type": "uint256"
            },
            {
              "internalType": "address",
              "name": "uploader",
              "type": "address"
            },
            {
              "internalType": "string",
              "name": "ipfsHash",
              "type": "string"
            },
            {
              "internalType": "string",
              "name": "txHash",
              "type": "string"
            }
          ],
          "internalType": "struct Fridge.SensorData[]",
          "name": "data",
          "type": "tuple[]"
        }
      ],
      "name": "saveDataBatch",
      "outputs": [],
      "stateMutability": "nonpayable",
      "type": "function"
    }
  ],
  "bytecode": "0x608060405234801561001057600080fd5b506111d6806100206000396000f3fe608060405234801561001057600080fd5b50600436106100415760003560e01c8063107b479914610046578063a073972414610078578063feaefa9014610094575b600080fd5b610060600480360381019061005b91906108bf565b6100c4565b60405161006f939291906109b1565b60405180910390f35b610092600480360381019061008d9190610a5b565b610228565b005b6100ae60048036038101906100a99190610afe565b610496565b6040516100bb9190610cd0565b60405180910390f35b600060205282600052604060002060205281600052604060002081815481106100ec57600080fd5b9060005260206000209060030201600092509250505080600001549080600101805461011790610d21565b80601f016020809104026020016040519081016040528092919081815260200182805461014390610d21565b80156101905780601f1061016557610100808354040283529160200191610190565b820191906000526020600020905b81548152906001019060200180831161017357829003601f168201915b5050505050908060020180546101a590610d21565b80601f01602080910402602001604051908101604052809291908181526020018280546101d190610d21565b801561021e5780601f106101f35761010080835404028352916020019161021e565b820191906000526020600020905b81548152906001019060200180831161020157829003601f168201915b5050505050905083565b60005b828290508110156104915761023e610800565b83838381811061025157610250610d52565b5b90506020028101906102639190610d90565b6020013581600001818152505083838381811061028357610282610d52565b5b90506020028101906102959190610d90565b80606001906102a49190610db8565b8080601f016020809104026020016040519081016040528093929190818152602001838380828437600081840152601f19601f82011690508083019250505050505050816020018190525083838381811061030257610301610d52565b5b90506020028101906103149190610d90565b80608001906103239190610db8565b8080601f016020809104026020016040519081016040528093929190818152602001838380828437600081840152601f19601f82011690508083019250505050505050816040018190525060008085858581811061038457610383610d52565b5b90506020028101906103969190610d90565b60400160208101906103a89190610e1b565b73ffffffffffffffffffffffffffffffffffffffff1673ffffffffffffffffffffffffffffffffffffffff16815260200190815260200160002060008585858181106103f7576103f6610d52565b5b90506020028101906104099190610d90565b6000013581526020019081526020016000208190806001815401808255809150506001900390600052602060002090600302016000909190919091506000820151816000015560208201518160010190816104649190611023565b50604082015181600201908161047a9190611023565b50505050808061048990611124565b91505061022b565b505050565b60608060005b858590508110156106c55760008060008888858181106104bf576104be610d52565b5b90506020020160208101906104d49190610e1b565b73ffffffffffffffffffffffffffffffffffffffff1673ffffffffffffffffffffffffffffffffffffffff1681526020019081526020016000206000868152602001908152602001600020805480602002602001604051908101604052809291908181526020016000905b8282101561069f57838290600052602060002090600302016040518060600160405290816000820154815260200160018201805461057c90610d21565b80601f01602080910402602001604051908101604052809291908181526020018280546105a890610d21565b80156105f55780601f106105ca576101008083540402835291602001916105f5565b820191906000526020600020905b8154815290600101906020018083116105d857829003601f168201915b5050505050815260200160028201805461060e90610d21565b80601f016020809104026020016040519081016040528092919081815260200182805461063a90610d21565b80156106875780601f1061065c57610100808354040283529160200191610687565b820191906000526020600020905b81548152906001019060200180831161066a57829003601f168201915b5050505050815250508152602001906001019061053f565b5050505090506106af83826106d1565b92505080806106bd90611124565b91505061049c565b50809150509392505050565b60606000825184516106e3919061116c565b67ffffffffffffffff8111156106fc576106fb610e48565b5b60405190808252806020026020018201604052801561073557816020015b610722610800565b81526020019060019003908161071a5790505b50905060005b84518110156107905784818151811061075757610756610d52565b5b602002602001015182828151811061077257610771610d52565b5b6020026020010181905250808061078890611124565b91505061073b565b5060005b83518110156107f5578381815181106107b0576107af610d52565b5b6020026020010151828287516107c6919061116c565b815181106107d7576107d6610d52565b5b602002602001018190525080806107ed90611124565b915050610794565b508091505092915050565b60405180606001604052806000815260200160608152602001606081525090565b600080fd5b600080fd5b600073ffffffffffffffffffffffffffffffffffffffff82169050919050565b60006108568261082b565b9050919050565b6108668161084b565b811461087157600080fd5b50565b6000813590506108838161085d565b92915050565b6000819050919050565b61089c81610889565b81146108a757600080fd5b50565b6000813590506108b981610893565b92915050565b6000806000606084860312156108d8576108d7610821565b5b60006108e686828701610874565b93505060206108f7868287016108aa565b9250506040610908868287016108aa565b9150509250925092565b61091b81610889565b82525050565b600081519050919050565b600082825260208201905092915050565b60005b8381101561095b578082015181840152602081019050610940565b60008484015250505050565b6000601f19601f8301169050919050565b600061098382610921565b61098d818561092c565b935061099d81856020860161093d565b6109a681610967565b840191505092915050565b60006060820190506109c66000830186610912565b81810360208301526109d88185610978565b905081810360408301526109ec8184610978565b9050949350505050565b600080fd5b600080fd5b600080fd5b60008083601f840112610a1b57610a1a6109f6565b5b8235905067ffffffffffffffff811115610a3857610a376109fb565b5b602083019150836020820283011115610a5457610a53610a00565b5b9250929050565b60008060208385031215610a7257610a71610821565b5b600083013567ffffffffffffffff811115610a9057610a8f610826565b5b610a9c85828601610a05565b92509250509250929050565b60008083601f840112610abe57610abd6109f6565b5b8235905067ffffffffffffffff811115610adb57610ada6109fb565b5b602083019150836020820283011115610af757610af6610a00565b5b9250929050565b600080600060408486031215610b1757610b16610821565b5b600084013567ffffffffffffffff811115610b3557610b34610826565b5b610b4186828701610aa8565b93509350506020610b54868287016108aa565b9150509250925092565b600081519050919050565b600082825260208201905092915050565b6000819050602082019050919050565b610b9381610889565b82525050565b600082825260208201905092915050565b6000610bb582610921565b610bbf8185610b99565b9350610bcf81856020860161093d565b610bd881610967565b840191505092915050565b6000606083016000830151610bfb6000860182610b8a565b5060208301518482036020860152610c138282610baa565b91505060408301518482036040860152610c2d8282610baa565b9150508091505092915050565b6000610c468383610be3565b905092915050565b6000602082019050919050565b6000610c6682610b5e565b610c708185610b69565b935083602082028501610c8285610b7a565b8060005b85811015610cbe5784840389528151610c9f8582610c3a565b9450610caa83610c4e565b925060208a01995050600181019050610c86565b50829750879550505050505092915050565b60006020820190508181036000830152610cea8184610c5b565b905092915050565b7f4e487b7100000000000000000000000000000000000000000000000000000000600052602260045260246000fd5b60006002820490506001821680610d3957607f821691505b602082108103610d4c57610d4b610cf2565b5b50919050565b7f4e487b7100000000000000000000000000000000000000000000000000000000600052603260045260246000fd5b600080fd5b600080fd5b600080fd5b60008235600160a003833603038112610dac57610dab610d81565b5b80830191505092915050565b60008083356001602003843603038112610dd557610dd4610d81565b5b80840192508235915067ffffffffffffffff821115610df757610df6610d86565b5b602083019250600182023603831315610e1357610e12610d8b565b5b509250929050565b600060208284031215610e3157610e30610821565b5b6000610e3f84828501610874565b91505092915050565b7f4e487b7100000000000000000000000000000000000000000000000000000000600052604160045260246000fd5b60008190508160005260206000209050919050565b60006020601f8301049050919050565b600082821b905092915050565b600060088302610ed97fffffffffffffffffffffffffffffffffffffffffffffffffffffffffffffffff82610e9c565b610ee38683610e9c565b95508019841693508086168417925050509392505050565b6000819050919050565b6000610f20610f1b610f1684610889565b610efb565b610889565b9050919050565b6000819050919050565b610f3a83610f05565b610f4e610f4682610f27565b848454610ea9565b825550505050565b600090565b610f63610f56565b610f6e818484610f31565b505050565b5b81811015610f9257610f87600082610f5b565b600181019050610f74565b5050565b601f821115610fd757610fa881610e77565b610fb184610e8c565b81016020851015610fc0578190505b610fd4610fcc85610e8c565b830182610f73565b50505b505050565b600082821c905092915050565b6000610ffa60001984600802610fdc565b1980831691505092915050565b60006110138383610fe9565b9150826002028217905092915050565b61102c82610921565b67ffffffffffffffff81111561104557611044610e48565b5b61104f8254610d21565b61105a828285610f96565b600060209050601f83116001811461108d576000841561107b578287015190505b6110858582611007565b8655506110ed565b601f19841661109b86610e77565b60005b828110156110c35784890151825560018201915060208501945060208101905061109e565b868310156110e057848901516110dc601f891682610fe9565b8355505b6001600288020188555050505b505050505050565b7f4e487b7100000000000000000000000000000000000000000000000000000000600052601160045260246000fd5b600061112f82610889565b91507fffffffffffffffffffffffffffffffffffffffffffffffffffffffffffffffff8203611161576111606110f5565b5b600182019050919050565b600061117782610889565b915061118283610889565b925082820190508082111561119a576111996110f5565b5b9291505056fea2646970667358221220f0c0ff9a0eded00366f3e00c6901fb7bada0be68ca8a990533d363911a626bc264736f6c63430008130033",
  "linkReferences": {},
  "deployedLinkReferences": {}
}