{
  "_format": "hh-sol-artifact-1",
  "contractName": "FridgeIPFSOwnerTxHash",
  "sourceName": "contracts/FridgeSensorsIPFSOwnerTxHash.sol",
  "abi": [
    {
      "anonymous": false,
      "inputs": [
        {
          "indexed": true,
          "internalType": "address",
          "name": "uploader",
          "type": "address"
        },
        {
          "indexed": true,
          "internalType": "uint256",
          "name": "fridge_id",
          "type": "uint256"
        },
        {
          "indexed": false,
          "internalType": "string",
          "name": "ipfsHash",
          "type": "string"
        }
      ],
      "name": "DataSaved",
      "type": "event"
    },
    {
      "inputs": [
        {
          "internalType": "address",
          "name": "",
          "type": "address"
        },
        {
          "internalType": "uint256",
          "name": "",
          "type": "uint256"
        },
        {
          "internalType": "uint256",
          "name": "",
          "type": "uint256"
        }
      ],
      "name": "fridgesByUploader",
      "outputs": [
        {
          "internalType": "uint256",
          "name": "timestamp",
          "type": "uint256"
        },
        {
          "internalType": "string",
          "name": "ipfsHash",
          "type": "string"
        },
        {
          "internalType": "string",
          "name": "txHash",
          "type": "string"
        }
      ],
      "stateMutability": "view",
      "type": "function"
    },
    {
      "inputs": [
        {
          "internalType": "address[]",
          "name": "uploaders",
          "type": "address[]"
        },
        {
          "internalType": "uint256",
          "name": "fridge_id",
          "type": "uint256"
        }
      ],
      "name": "getAllDataByMultipleUploaders",
      "outputs": [
        {
          "components": [
            {
              "internalType": "uint256",
              "name": "timestamp",
              "type": "uint256"
            },
            {
              "internalType": "string",
              "name": "ipfsHash",
              "type": "string"
            },
            {
              "internalType": "string",
              "name": "txHash",
              "type": "string"
            }
          ],
          "internalType": "struct FridgeIPFSOwnerTxHash.SensorData[]",
          "name": "",
          "type": "tuple[]"
        }
      ],
      "stateMutability": "view",
      "type": "function"
    },
    {
      "inputs": [
        {
          "components": [
            {
              "internalType": "uint256",
              "name": "fridge_id",
              "type": "uint256"
            },
            {
              "internalType": "address",
              "name": "uploader",
              "type": "address"
            },
            {
              "internalType": "string",
              "name": "ipfsHash",
              "type": "string"
            },
            {
              "internalType": "string",
              "name": "txHash",
              "type": "string"
            }
          ],
          "internalType": "struct FridgeIPFSOwnerTxHash.Data[]",
          "name": "data",
          "type": "tuple[]"
        }
      ],
      "name": "saveDataBatch",
      "outputs": [],
      "stateMutability": "nonpayable",
      "type": "function"
    }
  ],
  "bytecode": "0x608060405234801561001057600080fd5b506112ef806100206000396000f3fe608060405234801561001057600080fd5b50600436106100415760003560e01c8063107b47991461004657806337e4d15314610078578063feaefa9014610094575b600080fd5b610060600480360381019061005b9190610978565b6100c4565b60405161006f93929190610a6a565b60405180910390f35b610092600480360381019061008d9190610b14565b610228565b005b6100ae60048036038101906100a99190610bb7565b61054f565b6040516100bb9190610d89565b60405180910390f35b600060205282600052604060002060205281600052604060002081815481106100ec57600080fd5b9060005260206000209060030201600092509250505080600001549080600101805461011790610dda565b80601f016020809104026020016040519081016040528092919081815260200182805461014390610dda565b80156101905780601f1061016557610100808354040283529160200191610190565b820191906000526020600020905b81548152906001019060200180831161017357829003601f168201915b5050505050908060020180546101a590610dda565b80601f01602080910402602001604051908101604052809291908181526020018280546101d190610dda565b801561021e5780601f106101f35761010080835404028352916020019161021e565b820191906000526020600020905b81548152906001019060200180831161020157829003601f168201915b5050505050905083565b60005b8282905081101561054a5761023e6108b9565b4281600001818152505083838381811061025b5761025a610e0b565b5b905060200281019061026d9190610e49565b806040019061027c9190610e71565b8080601f016020809104026020016040519081016040528093929190818152602001838380828437600081840152601f19601f8201169050808301925050505050505081602001819052508383838181106102da576102d9610e0b565b5b90506020028101906102ec9190610e49565b80606001906102fb9190610e71565b8080601f016020809104026020016040519081016040528093929190818152602001838380828437600081840152601f19601f82011690508083019250505050505050816040018190525060008085858581811061035c5761035b610e0b565b5b905060200281019061036e9190610e49565b60200160208101906103809190610ed4565b73ffffffffffffffffffffffffffffffffffffffff1673ffffffffffffffffffffffffffffffffffffffff16815260200190815260200160002060008585858181106103cf576103ce610e0b565b5b90506020028101906103e19190610e49565b60000135815260200190815260200160002081908060018154018082558091505060019003906000526020600020906003020160009091909190915060008201518160000155602082015181600101908161043c91906110dc565b50604082015181600201908161045291906110dc565b50505083838381811061046857610467610e0b565b5b905060200281019061047a9190610e49565b6000013584848481811061049157610490610e0b565b5b90506020028101906104a39190610e49565b60200160208101906104b59190610ed4565b73ffffffffffffffffffffffffffffffffffffffff167f6667a5304245bcc169b30106ecb2562e762581332b1bd7ba8ffe21a897fe06a18686868181106104ff576104fe610e0b565b5b90506020028101906105119190610e49565b80604001906105209190610e71565b60405161052e9291906111ea565b60405180910390a35080806105429061123d565b91505061022b565b505050565b60608060005b8585905081101561077e57600080600088888581811061057857610577610e0b565b5b905060200201602081019061058d9190610ed4565b73ffffffffffffffffffffffffffffffffffffffff1673ffffffffffffffffffffffffffffffffffffffff1681526020019081526020016000206000868152602001908152602001600020805480602002602001604051908101604052809291908181526020016000905b8282101561075857838290600052602060002090600302016040518060600160405290816000820154815260200160018201805461063590610dda565b80601f016020809104026020016040519081016040528092919081815260200182805461066190610dda565b80156106ae5780601f10610683576101008083540402835291602001916106ae565b820191906000526020600020905b81548152906001019060200180831161069157829003601f168201915b505050505081526020016002820180546106c790610dda565b80601f01602080910402602001604051908101604052809291908181526020018280546106f390610dda565b80156107405780601f1061071557610100808354040283529160200191610740565b820191906000526020600020905b81548152906001019060200180831161072357829003601f168201915b505050505081525050815260200190600101906105f8565b505050509050610768838261078a565b92505080806107769061123d565b915050610555565b50809150509392505050565b606060008251845161079c9190611285565b67ffffffffffffffff8111156107b5576107b4610f01565b5b6040519080825280602002602001820160405280156107ee57816020015b6107db6108b9565b8152602001906001900390816107d35790505b50905060005b8451811015610849578481815181106108105761080f610e0b565b5b602002602001015182828151811061082b5761082a610e0b565b5b602002602001018190525080806108419061123d565b9150506107f4565b5060005b83518110156108ae5783818151811061086957610868610e0b565b5b60200260200101518282875161087f9190611285565b815181106108905761088f610e0b565b5b602002602001018190525080806108a69061123d565b91505061084d565b508091505092915050565b60405180606001604052806000815260200160608152602001606081525090565b600080fd5b600080fd5b600073ffffffffffffffffffffffffffffffffffffffff82169050919050565b600061090f826108e4565b9050919050565b61091f81610904565b811461092a57600080fd5b50565b60008135905061093c81610916565b92915050565b6000819050919050565b61095581610942565b811461096057600080fd5b50565b6000813590506109728161094c565b92915050565b600080600060608486031215610991576109906108da565b5b600061099f8682870161092d565b93505060206109b086828701610963565b92505060406109c186828701610963565b9150509250925092565b6109d481610942565b82525050565b600081519050919050565b600082825260208201905092915050565b60005b83811015610a145780820151818401526020810190506109f9565b60008484015250505050565b6000601f19601f8301169050919050565b6000610a3c826109da565b610a4681856109e5565b9350610a568185602086016109f6565b610a5f81610a20565b840191505092915050565b6000606082019050610a7f60008301866109cb565b8181036020830152610a918185610a31565b90508181036040830152610aa58184610a31565b9050949350505050565b600080fd5b600080fd5b600080fd5b60008083601f840112610ad457610ad3610aaf565b5b8235905067ffffffffffffffff811115610af157610af0610ab4565b5b602083019150836020820283011115610b0d57610b0c610ab9565b5b9250929050565b60008060208385031215610b2b57610b2a6108da565b5b600083013567ffffffffffffffff811115610b4957610b486108df565b5b610b5585828601610abe565b92509250509250929050565b60008083601f840112610b7757610b76610aaf565b5b8235905067ffffffffffffffff811115610b9457610b93610ab4565b5b602083019150836020820283011115610bb057610baf610ab9565b5b9250929050565b600080600060408486031215610bd057610bcf6108da565b5b600084013567ffffffffffffffff811115610bee57610bed6108df565b5b610bfa86828701610b61565b93509350506020610c0d86828701610963565b9150509250925092565b600081519050919050565b600082825260208201905092915050565b6000819050602082019050919050565b610c4c81610942565b82525050565b600082825260208201905092915050565b6000610c6e826109da565b610c788185610c52565b9350610c888185602086016109f6565b610c9181610a20565b840191505092915050565b6000606083016000830151610cb46000860182610c43565b5060208301518482036020860152610ccc8282610c63565b91505060408301518482036040860152610ce68282610c63565b9150508091505092915050565b6000610cff8383610c9c565b905092915050565b6000602082019050919050565b6000610d1f82610c17565b610d298185610c22565b935083602082028501610d3b85610c33565b8060005b85811015610d775784840389528151610d588582610cf3565b9450610d6383610d07565b925060208a01995050600181019050610d3f565b50829750879550505050505092915050565b60006020820190508181036000830152610da38184610d14565b905092915050565b7f4e487b7100000000000000000000000000000000000000000000000000000000600052602260045260246000fd5b60006002820490506001821680610df257607f821691505b602082108103610e0557610e04610dab565b5b50919050565b7f4e487b7100000000000000000000000000000000000000000000000000000000600052603260045260246000fd5b600080fd5b600080fd5b600080fd5b600082356001608003833603038112610e6557610e64610e3a565b5b80830191505092915050565b60008083356001602003843603038112610e8e57610e8d610e3a565b5b80840192508235915067ffffffffffffffff821115610eb057610eaf610e3f565b5b602083019250600182023603831315610ecc57610ecb610e44565b5b509250929050565b600060208284031215610eea57610ee96108da565b5b6000610ef88482850161092d565b91505092915050565b7f4e487b7100000000000000000000000000000000000000000000000000000000600052604160045260246000fd5b60008190508160005260206000209050919050565b60006020601f8301049050919050565b600082821b905092915050565b600060088302610f927fffffffffffffffffffffffffffffffffffffffffffffffffffffffffffffffff82610f55565b610f9c8683610f55565b95508019841693508086168417925050509392505050565b6000819050919050565b6000610fd9610fd4610fcf84610942565b610fb4565b610942565b9050919050565b6000819050919050565b610ff383610fbe565b611007610fff82610fe0565b848454610f62565b825550505050565b600090565b61101c61100f565b611027818484610fea565b505050565b5b8181101561104b57611040600082611014565b60018101905061102d565b5050565b601f8211156110905761106181610f30565b61106a84610f45565b81016020851015611079578190505b61108d61108585610f45565b83018261102c565b50505b505050565b600082821c905092915050565b60006110b360001984600802611095565b1980831691505092915050565b60006110cc83836110a2565b9150826002028217905092915050565b6110e5826109da565b67ffffffffffffffff8111156110fe576110fd610f01565b5b6111088254610dda565b61111382828561104f565b600060209050601f8311600181146111465760008415611134578287015190505b61113e85826110c0565b8655506111a6565b601f19841661115486610f30565b60005b8281101561117c57848901518255600182019150602085019450602081019050611157565b868310156111995784890151611195601f8916826110a2565b8355505b6001600288020188555050505b505050505050565b82818337600083830152505050565b60006111c983856109e5565b93506111d68385846111ae565b6111df83610a20565b840190509392505050565b600060208201905081810360008301526112058184866111bd565b90509392505050565b7f4e487b7100000000000000000000000000000000000000000000000000000000600052601160045260246000fd5b600061124882610942565b91507fffffffffffffffffffffffffffffffffffffffffffffffffffffffffffffffff820361127a5761127961120e565b5b600182019050919050565b600061129082610942565b915061129b83610942565b92508282019050808211156112b3576112b261120e565b5b9291505056fea2646970667358221220c29a81ceb428def7d9822b514a562638decffcec51b96458528bc9d591ce20f164736f6c63430008130033",
  "linkReferences": {},
  "deployedLinkReferences": {}
}