{
  "_format": "hh-sol-artifact-1",
  "contractName": "FridgeStringID",
  "sourceName": "contracts/FridgeStringID.sol",
  "abi": [
    {
      "inputs": [
        {
          "internalType": "address",
          "name": "",
          "type": "address"
        },
        {
          "internalType": "string",
          "name": "",
          "type": "string"
        },
        {
          "internalType": "uint256",
          "name": "",
          "type": "uint256"
        }
      ],
      "name": "fridgesByUploader",
      "outputs": [
        {
          "internalType": "uint256",
          "name": "timestamp",
          "type": "uint256"
        },
        {
          "internalType": "string",
          "name": "ipfsHash",
          "type": "string"
        },
        {
          "internalType": "string",
          "name": "txHash",
          "type": "string"
        }
      ],
      "stateMutability": "view",
      "type": "function"
    },
    {
      "inputs": [
        {
          "internalType": "address[]",
          "name": "uploaders",
          "type": "address[]"
        },
        {
          "internalType": "string",
          "name": "fridge_id",
          "type": "string"
        }
      ],
      "name": "getAllDataByMultipleUploaders",
      "outputs": [
        {
          "components": [
            {
              "internalType": "uint256",
              "name": "timestamp",
              "type": "uint256"
            },
            {
              "internalType": "string",
              "name": "ipfsHash",
              "type": "string"
            },
            {
              "internalType": "string",
              "name": "txHash",
              "type": "string"
            }
          ],
          "internalType": "struct FridgeStringID.Data[]",
          "name": "",
          "type": "tuple[]"
        }
      ],
      "stateMutability": "view",
      "type": "function"
    },
    {
      "inputs": [
        {
          "components": [
            {
              "internalType": "string",
              "name": "fridge_id",
              "type": "string"
            },
            {
              "internalType": "uint256",
              "name": "timestamp",
              "type": "uint256"
            },
            {
              "internalType": "address",
              "name": "uploader",
              "type": "address"
            },
            {
              "internalType": "string",
              "name": "ipfsHash",
              "type": "string"
            },
            {
              "internalType": "string",
              "name": "txHash",
              "type": "string"
            }
          ],
          "internalType": "struct FridgeStringID.SensorData[]",
          "name": "data",
          "type": "tuple[]"
        }
      ],
      "name": "saveDataBatch",
      "outputs": [],
      "stateMutability": "nonpayable",
      "type": "function"
    }
  ],
  "bytecode": "0x608060405234801561001057600080fd5b506113e2806100206000396000f3fe608060405234801561001057600080fd5b50600436106100415760003560e01c80633c1ee51214610046578063bd50d08114610062578063ebb9e79814610094575b600080fd5b610060600480360381019061005b91906108d2565b6100c4565b005b61007c60048036038101906100779190610af4565b610349565b60405161008b93929190610bf1565b60405180910390f35b6100ae60048036038101906100a99190610c8c565b6104c3565b6040516100bb9190610e7a565b60405180910390f35b60005b82829050811015610344576100da610838565b8383838181106100ed576100ec610e9c565b5b90506020028101906100ff9190610eda565b6020013581600001818152505083838381811061011f5761011e610e9c565b5b90506020028101906101319190610eda565b80606001906101409190610f02565b8080601f016020809104026020016040519081016040528093929190818152602001838380828437600081840152601f19601f82011690508083019250505050505050816020018190525083838381811061019e5761019d610e9c565b5b90506020028101906101b09190610eda565b80608001906101bf9190610f02565b8080601f016020809104026020016040519081016040528093929190818152602001838380828437600081840152601f19601f8201169050808301925050505050505081604001819052506000808585858181106102205761021f610e9c565b5b90506020028101906102329190610eda565b60400160208101906102449190610f65565b73ffffffffffffffffffffffffffffffffffffffff1673ffffffffffffffffffffffffffffffffffffffff16815260200190815260200160002084848481811061029157610290610e9c565b5b90506020028101906102a39190610eda565b80600001906102b29190610f02565b6040516102c0929190610fc2565b908152602001604051809103902081908060018154018082558091505060019003906000526020600020906003020160009091909190915060008201518160000155602082015181600101908161031791906111e7565b50604082015181600201908161032d91906111e7565b50505050808061033c906112e8565b9150506100c7565b505050565b600060205282600052604060002082805160208101820180518482526020830160208501208183528095505050505050818154811061038757600080fd5b906000526020600020906003020160009250925050508060000154908060010180546103b29061100a565b80601f01602080910402602001604051908101604052809291908181526020018280546103de9061100a565b801561042b5780601f106104005761010080835404028352916020019161042b565b820191906000526020600020905b81548152906001019060200180831161040e57829003601f168201915b5050505050908060020180546104409061100a565b80601f016020809104026020016040519081016040528092919081815260200182805461046c9061100a565b80156104b95780601f1061048e576101008083540402835291602001916104b9565b820191906000526020600020905b81548152906001019060200180831161049c57829003601f168201915b5050505050905083565b60608060005b858590508110156106fd5760008060008888858181106104ec576104eb610e9c565b5b90506020020160208101906105019190610f65565b73ffffffffffffffffffffffffffffffffffffffff1673ffffffffffffffffffffffffffffffffffffffff168152602001908152602001600020856040516105499190611361565b9081526020016040518091039020805480602002602001604051908101604052809291908181526020016000905b828210156106d75783829060005260206000209060030201604051806060016040529081600082015481526020016001820180546105b49061100a565b80601f01602080910402602001604051908101604052809291908181526020018280546105e09061100a565b801561062d5780601f106106025761010080835404028352916020019161062d565b820191906000526020600020905b81548152906001019060200180831161061057829003601f168201915b505050505081526020016002820180546106469061100a565b80601f01602080910402602001604051908101604052809291908181526020018280546106729061100a565b80156106bf5780601f10610694576101008083540402835291602001916106bf565b820191906000526020600020905b8154815290600101906020018083116106a257829003601f168201915b50505050508152505081526020019060010190610577565b5050505090506106e78382610709565b92505080806106f5906112e8565b9150506104c9565b50809150509392505050565b606060008251845161071b9190611378565b67ffffffffffffffff81111561073457610733610993565b5b60405190808252806020026020018201604052801561076d57816020015b61075a610838565b8152602001906001900390816107525790505b50905060005b84518110156107c85784818151811061078f5761078e610e9c565b5b60200260200101518282815181106107aa576107a9610e9c565b5b602002602001018190525080806107c0906112e8565b915050610773565b5060005b835181101561082d578381815181106107e8576107e7610e9c565b5b6020026020010151828287516107fe9190611378565b8151811061080f5761080e610e9c565b5b60200260200101819052508080610825906112e8565b9150506107cc565b508091505092915050565b60405180606001604052806000815260200160608152602001606081525090565b6000604051905090565b600080fd5b600080fd5b600080fd5b600080fd5b600080fd5b60008083601f8401126108925761089161086d565b5b8235905067ffffffffffffffff8111156108af576108ae610872565b5b6020830191508360208202830111156108cb576108ca610877565b5b9250929050565b600080602083850312156108e9576108e8610863565b5b600083013567ffffffffffffffff81111561090757610906610868565b5b6109138582860161087c565b92509250509250929050565b600073ffffffffffffffffffffffffffffffffffffffff82169050919050565b600061094a8261091f565b9050919050565b61095a8161093f565b811461096557600080fd5b50565b60008135905061097781610951565b92915050565b600080fd5b6000601f19601f8301169050919050565b7f4e487b7100000000000000000000000000000000000000000000000000000000600052604160045260246000fd5b6109cb82610982565b810181811067ffffffffffffffff821117156109ea576109e9610993565b5b80604052505050565b60006109fd610859565b9050610a0982826109c2565b919050565b600067ffffffffffffffff821115610a2957610a28610993565b5b610a3282610982565b9050602081019050919050565b82818337600083830152505050565b6000610a61610a5c84610a0e565b6109f3565b905082815260208101848484011115610a7d57610a7c61097d565b5b610a88848285610a3f565b509392505050565b600082601f830112610aa557610aa461086d565b5b8135610ab5848260208601610a4e565b91505092915050565b6000819050919050565b610ad181610abe565b8114610adc57600080fd5b50565b600081359050610aee81610ac8565b92915050565b600080600060608486031215610b0d57610b0c610863565b5b6000610b1b86828701610968565b935050602084013567ffffffffffffffff811115610b3c57610b3b610868565b5b610b4886828701610a90565b9250506040610b5986828701610adf565b9150509250925092565b610b6c81610abe565b82525050565b600081519050919050565b600082825260208201905092915050565b60005b83811015610bac578082015181840152602081019050610b91565b60008484015250505050565b6000610bc382610b72565b610bcd8185610b7d565b9350610bdd818560208601610b8e565b610be681610982565b840191505092915050565b6000606082019050610c066000830186610b63565b8181036020830152610c188185610bb8565b90508181036040830152610c2c8184610bb8565b9050949350505050565b60008083601f840112610c4c57610c4b61086d565b5b8235905067ffffffffffffffff811115610c6957610c68610872565b5b602083019150836020820283011115610c8557610c84610877565b5b9250929050565b600080600060408486031215610ca557610ca4610863565b5b600084013567ffffffffffffffff811115610cc357610cc2610868565b5b610ccf86828701610c36565b9350935050602084013567ffffffffffffffff811115610cf257610cf1610868565b5b610cfe86828701610a90565b9150509250925092565b600081519050919050565b600082825260208201905092915050565b6000819050602082019050919050565b610d3d81610abe565b82525050565b600082825260208201905092915050565b6000610d5f82610b72565b610d698185610d43565b9350610d79818560208601610b8e565b610d8281610982565b840191505092915050565b6000606083016000830151610da56000860182610d34565b5060208301518482036020860152610dbd8282610d54565b91505060408301518482036040860152610dd78282610d54565b9150508091505092915050565b6000610df08383610d8d565b905092915050565b6000602082019050919050565b6000610e1082610d08565b610e1a8185610d13565b935083602082028501610e2c85610d24565b8060005b85811015610e685784840389528151610e498582610de4565b9450610e5483610df8565b925060208a01995050600181019050610e30565b50829750879550505050505092915050565b60006020820190508181036000830152610e948184610e05565b905092915050565b7f4e487b7100000000000000000000000000000000000000000000000000000000600052603260045260246000fd5b600080fd5b600080fd5b600080fd5b60008235600160a003833603038112610ef657610ef5610ecb565b5b80830191505092915050565b60008083356001602003843603038112610f1f57610f1e610ecb565b5b80840192508235915067ffffffffffffffff821115610f4157610f40610ed0565b5b602083019250600182023603831315610f5d57610f5c610ed5565b5b509250929050565b600060208284031215610f7b57610f7a610863565b5b6000610f8984828501610968565b91505092915050565b600081905092915050565b6000610fa98385610f92565b9350610fb6838584610a3f565b82840190509392505050565b6000610fcf828486610f9d565b91508190509392505050565b7f4e487b7100000000000000000000000000000000000000000000000000000000600052602260045260246000fd5b6000600282049050600182168061102257607f821691505b60208210810361103557611034610fdb565b5b50919050565b60008190508160005260206000209050919050565b60006020601f8301049050919050565b600082821b905092915050565b60006008830261109d7fffffffffffffffffffffffffffffffffffffffffffffffffffffffffffffffff82611060565b6110a78683611060565b95508019841693508086168417925050509392505050565b6000819050919050565b60006110e46110df6110da84610abe565b6110bf565b610abe565b9050919050565b6000819050919050565b6110fe836110c9565b61111261110a826110eb565b84845461106d565b825550505050565b600090565b61112761111a565b6111328184846110f5565b505050565b5b818110156111565761114b60008261111f565b600181019050611138565b5050565b601f82111561119b5761116c8161103b565b61117584611050565b81016020851015611184578190505b61119861119085611050565b830182611137565b50505b505050565b600082821c905092915050565b60006111be600019846008026111a0565b1980831691505092915050565b60006111d783836111ad565b9150826002028217905092915050565b6111f082610b72565b67ffffffffffffffff81111561120957611208610993565b5b611213825461100a565b61121e82828561115a565b600060209050601f831160018114611251576000841561123f578287015190505b61124985826111cb565b8655506112b1565b601f19841661125f8661103b565b60005b8281101561128757848901518255600182019150602085019450602081019050611262565b868310156112a457848901516112a0601f8916826111ad565b8355505b6001600288020188555050505b505050505050565b7f4e487b7100000000000000000000000000000000000000000000000000000000600052601160045260246000fd5b60006112f382610abe565b91507fffffffffffffffffffffffffffffffffffffffffffffffffffffffffffffffff8203611325576113246112b9565b5b600182019050919050565b600061133b82610b72565b6113458185610f92565b9350611355818560208601610b8e565b80840191505092915050565b600061136d8284611330565b915081905092915050565b600061138382610abe565b915061138e83610abe565b92508282019050808211156113a6576113a56112b9565b5b9291505056fea264697066735822122097db3315d9919cb603f72d2eb631a84b9fe48e3b33f717e84afd51bf2c99caa364736f6c63430008130033",
  "linkReferences": {},
  "deployedLinkReferences": {}
}