{
  "_format": "hh-sol-artifact-1",
  "contractName": "FridgeIPFS",
  "sourceName": "contracts/FridgeSensorsIPFS.sol",
  "abi": [
    {
      "anonymous": false,
      "inputs": [
        {
          "indexed": true,
          "internalType": "uint256",
          "name": "fridge_id",
          "type": "uint256"
        },
        {
          "indexed": false,
          "internalType": "string",
          "name": "ipfsHash",
          "type": "string"
        }
      ],
      "name": "DataSaved",
      "type": "event"
    },
    {
      "inputs": [
        {
          "internalType": "uint256",
          "name": "",
          "type": "uint256"
        },
        {
          "internalType": "uint256",
          "name": "",
          "type": "uint256"
        }
      ],
      "name": "fridges",
      "outputs": [
        {
          "internalType": "uint256",
          "name": "timestamp",
          "type": "uint256"
        },
        {
          "internalType": "string",
          "name": "ipfsHash",
          "type": "string"
        }
      ],
      "stateMutability": "view",
      "type": "function"
    },
    {
      "inputs": [
        {
          "internalType": "uint256",
          "name": "fridge_id",
          "type": "uint256"
        }
      ],
      "name": "getAllData",
      "outputs": [
        {
          "components": [
            {
              "internalType": "uint256",
              "name": "timestamp",
              "type": "uint256"
            },
            {
              "internalType": "string",
              "name": "ipfsHash",
              "type": "string"
            }
          ],
          "internalType": "struct FridgeIPFS.SensorData[]",
          "name": "",
          "type": "tuple[]"
        }
      ],
      "stateMutability": "view",
      "type": "function"
    },
    {
      "inputs": [
        {
          "internalType": "uint256",
          "name": "fridge_id",
          "type": "uint256"
        },
        {
          "internalType": "string",
          "name": "_ipfsHash",
          "type": "string"
        }
      ],
      "name": "saveData",
      "outputs": [],
      "stateMutability": "nonpayable",
      "type": "function"
    },
    {
      "inputs": [
        {
          "components": [
            {
              "internalType": "uint256",
              "name": "fridge_id",
              "type": "uint256"
            },
            {
              "internalType": "string",
              "name": "ipfsHash",
              "type": "string"
            }
          ],
          "internalType": "struct FridgeIPFS.Data[]",
          "name": "data",
          "type": "tuple[]"
        }
      ],
      "name": "saveDataBatch",
      "outputs": [],
      "stateMutability": "nonpayable",
      "type": "function"
    }
  ],
  "bytecode": "0x608060405234801561001057600080fd5b50610eb0806100206000396000f3fe608060405234801561001057600080fd5b506004361061004c5760003560e01c806316aa136e1461005157806330c20d5a1461008157806350eb48c1146100b2578063a3c62fce146100ce575b600080fd5b61006b600480360381019061006691906105af565b6100ea565b604051610078919061077a565b60405180910390f35b61009b6004803603810190610096919061079c565b6101f7565b6040516100a9929190610835565b60405180910390f35b6100cc60048036038101906100c791906108ca565b6102c0565b005b6100e860048036038101906100e39190610980565b610383565b005b6060600080838152602001908152602001600020805480602002602001604051908101604052809291908181526020016000905b828210156101ec57838290600052602060002090600202016040518060400160405290816000820154815260200160018201805461015b906109fc565b80601f0160208091040260200160405190810160405280929190818152602001828054610187906109fc565b80156101d45780601f106101a9576101008083540402835291602001916101d4565b820191906000526020600020905b8154815290600101906020018083116101b757829003601f168201915b5050505050815250508152602001906001019061011e565b505050509050919050565b6000602052816000526040600020818154811061021357600080fd5b90600052602060002090600202016000915091505080600001549080600101805461023d906109fc565b80601f0160208091040260200160405190810160405280929190818152602001828054610269906109fc565b80156102b65780601f1061028b576101008083540402835291602001916102b6565b820191906000526020600020905b81548152906001019060200180831161029957829003601f168201915b5050505050905082565b6102c8610555565b4281600001818152505082828080601f016020809104026020016040519081016040528093929190818152602001838380828437600081840152601f19601f82011690508083019250505050505050816020018190525060008085815260200190815260200160002081908060018154018082558091505060019003906000526020600020906002020160009091909190915060008201518160000155602082015181600101908161037a9190610c08565b50505050505050565b60005b8282905081101561055057610399610555565b428160000181815250508383838181106103b6576103b5610cda565b5b90506020028101906103c89190610d18565b80602001906103d79190610d40565b8080601f016020809104026020016040519081016040528093929190818152602001838380828437600081840152601f19601f82011690508083019250505050505050816020018190525060008085858581811061043857610437610cda565b5b905060200281019061044a9190610d18565b6000013581526020019081526020016000208190806001815401808255809150506001900390600052602060002090600202016000909190919091506000820151816000015560208201518160010190816104a59190610c08565b5050508383838181106104bb576104ba610cda565b5b90506020028101906104cd9190610d18565b600001357fab61aa111cde8c06bc7c0cdd02c52514657cbaab50ec3d9e043e2eef3a61196d85858581811061050557610504610cda565b5b90506020028101906105179190610d18565b80602001906105269190610d40565b604051610534929190610ddf565b60405180910390a250808061054890610e32565b915050610386565b505050565b604051806040016040528060008152602001606081525090565b600080fd5b600080fd5b6000819050919050565b61058c81610579565b811461059757600080fd5b50565b6000813590506105a981610583565b92915050565b6000602082840312156105c5576105c461056f565b5b60006105d38482850161059a565b91505092915050565b600081519050919050565b600082825260208201905092915050565b6000819050602082019050919050565b61061181610579565b82525050565b600081519050919050565b600082825260208201905092915050565b60005b83811015610651578082015181840152602081019050610636565b60008484015250505050565b6000601f19601f8301169050919050565b600061067982610617565b6106838185610622565b9350610693818560208601610633565b61069c8161065d565b840191505092915050565b60006040830160008301516106bf6000860182610608565b50602083015184820360208601526106d7828261066e565b9150508091505092915050565b60006106f083836106a7565b905092915050565b6000602082019050919050565b6000610710826105dc565b61071a81856105e7565b93508360208202850161072c856105f8565b8060005b85811015610768578484038952815161074985826106e4565b9450610754836106f8565b925060208a01995050600181019050610730565b50829750879550505050505092915050565b600060208201905081810360008301526107948184610705565b905092915050565b600080604083850312156107b3576107b261056f565b5b60006107c18582860161059a565b92505060206107d28582860161059a565b9150509250929050565b6107e581610579565b82525050565b600082825260208201905092915050565b600061080782610617565b61081181856107eb565b9350610821818560208601610633565b61082a8161065d565b840191505092915050565b600060408201905061084a60008301856107dc565b818103602083015261085c81846107fc565b90509392505050565b600080fd5b600080fd5b600080fd5b60008083601f84011261088a57610889610865565b5b8235905067ffffffffffffffff8111156108a7576108a661086a565b5b6020830191508360018202830111156108c3576108c261086f565b5b9250929050565b6000806000604084860312156108e3576108e261056f565b5b60006108f18682870161059a565b935050602084013567ffffffffffffffff81111561091257610911610574565b5b61091e86828701610874565b92509250509250925092565b60008083601f8401126109405761093f610865565b5b8235905067ffffffffffffffff81111561095d5761095c61086a565b5b6020830191508360208202830111156109795761097861086f565b5b9250929050565b600080602083850312156109975761099661056f565b5b600083013567ffffffffffffffff8111156109b5576109b4610574565b5b6109c18582860161092a565b92509250509250929050565b7f4e487b7100000000000000000000000000000000000000000000000000000000600052602260045260246000fd5b60006002820490506001821680610a1457607f821691505b602082108103610a2757610a266109cd565b5b50919050565b7f4e487b7100000000000000000000000000000000000000000000000000000000600052604160045260246000fd5b60008190508160005260206000209050919050565b60006020601f8301049050919050565b600082821b905092915050565b600060088302610abe7fffffffffffffffffffffffffffffffffffffffffffffffffffffffffffffffff82610a81565b610ac88683610a81565b95508019841693508086168417925050509392505050565b6000819050919050565b6000610b05610b00610afb84610579565b610ae0565b610579565b9050919050565b6000819050919050565b610b1f83610aea565b610b33610b2b82610b0c565b848454610a8e565b825550505050565b600090565b610b48610b3b565b610b53818484610b16565b505050565b5b81811015610b7757610b6c600082610b40565b600181019050610b59565b5050565b601f821115610bbc57610b8d81610a5c565b610b9684610a71565b81016020851015610ba5578190505b610bb9610bb185610a71565b830182610b58565b50505b505050565b600082821c905092915050565b6000610bdf60001984600802610bc1565b1980831691505092915050565b6000610bf88383610bce565b9150826002028217905092915050565b610c1182610617565b67ffffffffffffffff811115610c2a57610c29610a2d565b5b610c3482546109fc565b610c3f828285610b7b565b600060209050601f831160018114610c725760008415610c60578287015190505b610c6a8582610bec565b865550610cd2565b601f198416610c8086610a5c565b60005b82811015610ca857848901518255600182019150602085019450602081019050610c83565b86831015610cc55784890151610cc1601f891682610bce565b8355505b6001600288020188555050505b505050505050565b7f4e487b7100000000000000000000000000000000000000000000000000000000600052603260045260246000fd5b600080fd5b600080fd5b600080fd5b600082356001604003833603038112610d3457610d33610d09565b5b80830191505092915050565b60008083356001602003843603038112610d5d57610d5c610d09565b5b80840192508235915067ffffffffffffffff821115610d7f57610d7e610d0e565b5b602083019250600182023603831315610d9b57610d9a610d13565b5b509250929050565b82818337600083830152505050565b6000610dbe83856107eb565b9350610dcb838584610da3565b610dd48361065d565b840190509392505050565b60006020820190508181036000830152610dfa818486610db2565b90509392505050565b7f4e487b7100000000000000000000000000000000000000000000000000000000600052601160045260246000fd5b6000610e3d82610579565b91507fffffffffffffffffffffffffffffffffffffffffffffffffffffffffffffffff8203610e6f57610e6e610e03565b5b60018201905091905056fea2646970667358221220b4822bc8f37118f782e93966881e8b0269601a78e402b301f5964d185d72128764736f6c63430008130033",
  "linkReferences": {},
  "deployedLinkReferences": {}
}