{
  "_format": "hh-sol-artifact-1",
  "contractName": "FridgeIPFSOwner",
  "sourceName": "contracts/FridgeSensorsIPFSOwner.sol",
  "abi": [
    {
      "anonymous": false,
      "inputs": [
        {
          "indexed": true,
          "internalType": "address",
          "name": "uploader",
          "type": "address"
        },
        {
          "indexed": true,
          "internalType": "uint256",
          "name": "fridge_id",
          "type": "uint256"
        },
        {
          "indexed": false,
          "internalType": "string",
          "name": "ipfsHash",
          "type": "string"
        }
      ],
      "name": "DataSaved",
      "type": "event"
    },
    {
      "inputs": [
        {
          "internalType": "address",
          "name": "",
          "type": "address"
        },
        {
          "internalType": "uint256",
          "name": "",
          "type": "uint256"
        },
        {
          "internalType": "uint256",
          "name": "",
          "type": "uint256"
        }
      ],
      "name": "fridgesByUploader",
      "outputs": [
        {
          "internalType": "uint256",
          "name": "timestamp",
          "type": "uint256"
        },
        {
          "internalType": "string",
          "name": "ipfsHash",
          "type": "string"
        }
      ],
      "stateMutability": "view",
      "type": "function"
    },
    {
      "inputs": [
        {
          "internalType": "address[]",
          "name": "uploaders",
          "type": "address[]"
        },
        {
          "internalType": "uint256",
          "name": "fridge_id",
          "type": "uint256"
        }
      ],
      "name": "getAllDataByMultipleUploaders",
      "outputs": [
        {
          "components": [
            {
              "internalType": "uint256",
              "name": "timestamp",
              "type": "uint256"
            },
            {
              "internalType": "string",
              "name": "ipfsHash",
              "type": "string"
            }
          ],
          "internalType": "struct FridgeIPFSOwner.SensorData[]",
          "name": "",
          "type": "tuple[]"
        }
      ],
      "stateMutability": "view",
      "type": "function"
    },
    {
      "inputs": [
        {
          "internalType": "uint256",
          "name": "fridge_id",
          "type": "uint256"
        },
        {
          "internalType": "string",
          "name": "_ipfsHash",
          "type": "string"
        }
      ],
      "name": "saveData",
      "outputs": [],
      "stateMutability": "nonpayable",
      "type": "function"
    },
    {
      "inputs": [
        {
          "components": [
            {
              "internalType": "uint256",
              "name": "fridge_id",
              "type": "uint256"
            },
            {
              "internalType": "address",
              "name": "uploader",
              "type": "address"
            },
            {
              "internalType": "string",
              "name": "ipfsHash",
              "type": "string"
            }
          ],
          "internalType": "struct FridgeIPFSOwner.Data[]",
          "name": "data",
          "type": "tuple[]"
        }
      ],
      "name": "saveDataBatch",
      "outputs": [],
      "stateMutability": "nonpayable",
      "type": "function"
    }
  ],
  "bytecode": "0x608060405234801561001057600080fd5b50611331806100206000396000f3fe608060405234801561001057600080fd5b506004361061004c5760003560e01c8063107b47991461005157806350eb48c114610082578063872965321461009e578063feaefa90146100ba575b600080fd5b61006b60048036038101906100669190610933565b6100ea565b604051610079929190610a25565b60405180910390f35b61009c60048036038101906100979190610aba565b6101c0565b005b6100b860048036038101906100b39190610b70565b610311565b005b6100d460048036038101906100cf9190610c13565b6105a3565b6040516100e19190610dcb565b60405180910390f35b6000602052826000526040600020602052816000526040600020818154811061011257600080fd5b9060005260206000209060020201600092509250505080600001549080600101805461013d90610e1c565b80601f016020809104026020016040519081016040528092919081815260200182805461016990610e1c565b80156101b65780601f1061018b576101008083540402835291602001916101b6565b820191906000526020600020905b81548152906001019060200180831161019957829003601f168201915b5050505050905082565b6101c861087b565b4281600001818152505082828080601f016020809104026020016040519081016040528093929190818152602001838380828437600081840152601f19601f8201169050808301925050505050505081602001819052506000803373ffffffffffffffffffffffffffffffffffffffff1673ffffffffffffffffffffffffffffffffffffffff16815260200190815260200160002060008581526020019081526020016000208190806001815401808255809150506001900390600052602060002090600202016000909190919091506000820151816000015560208201518160010190816102b79190611028565b505050833373ffffffffffffffffffffffffffffffffffffffff167f6667a5304245bcc169b30106ecb2562e762581332b1bd7ba8ffe21a897fe06a18585604051610303929190611136565b60405180910390a350505050565b60005b8282905081101561059e5761032761087b565b428160000181815250508383838181106103445761034361115a565b5b90506020028101906103569190611198565b806040019061036591906111c0565b8080601f016020809104026020016040519081016040528093929190818152602001838380828437600081840152601f19601f8201169050808301925050505050505081602001819052506000808585858181106103c6576103c561115a565b5b90506020028101906103d89190611198565b60200160208101906103ea9190611223565b73ffffffffffffffffffffffffffffffffffffffff1673ffffffffffffffffffffffffffffffffffffffff16815260200190815260200160002060008585858181106104395761043861115a565b5b905060200281019061044b9190611198565b6000013581526020019081526020016000208190806001815401808255809150506001900390600052602060002090600202016000909190919091506000820151816000015560208201518160010190816104a69190611028565b5050508383838181106104bc576104bb61115a565b5b90506020028101906104ce9190611198565b600001358484848181106104e5576104e461115a565b5b90506020028101906104f79190611198565b60200160208101906105099190611223565b73ffffffffffffffffffffffffffffffffffffffff167f6667a5304245bcc169b30106ecb2562e762581332b1bd7ba8ffe21a897fe06a18686868181106105535761055261115a565b5b90506020028101906105659190611198565b806040019061057491906111c0565b604051610582929190611136565b60405180910390a35080806105969061127f565b915050610314565b505050565b60608060005b858590508110156107405760008060008888858181106105cc576105cb61115a565b5b90506020020160208101906105e19190611223565b73ffffffffffffffffffffffffffffffffffffffff1673ffffffffffffffffffffffffffffffffffffffff1681526020019081526020016000206000868152602001908152602001600020805480602002602001604051908101604052809291908181526020016000905b8282101561071a57838290600052602060002090600202016040518060400160405290816000820154815260200160018201805461068990610e1c565b80601f01602080910402602001604051908101604052809291908181526020018280546106b590610e1c565b80156107025780601f106106d757610100808354040283529160200191610702565b820191906000526020600020905b8154815290600101906020018083116106e557829003601f168201915b5050505050815250508152602001906001019061064c565b50505050905061072a838261074c565b92505080806107389061127f565b9150506105a9565b50809150509392505050565b606060008251845161075e91906112c7565b67ffffffffffffffff81111561077757610776610e4d565b5b6040519080825280602002602001820160405280156107b057816020015b61079d61087b565b8152602001906001900390816107955790505b50905060005b845181101561080b578481815181106107d2576107d161115a565b5b60200260200101518282815181106107ed576107ec61115a565b5b602002602001018190525080806108039061127f565b9150506107b6565b5060005b83518110156108705783818151811061082b5761082a61115a565b5b60200260200101518282875161084191906112c7565b815181106108525761085161115a565b5b602002602001018190525080806108689061127f565b91505061080f565b508091505092915050565b604051806040016040528060008152602001606081525090565b600080fd5b600080fd5b600073ffffffffffffffffffffffffffffffffffffffff82169050919050565b60006108ca8261089f565b9050919050565b6108da816108bf565b81146108e557600080fd5b50565b6000813590506108f7816108d1565b92915050565b6000819050919050565b610910816108fd565b811461091b57600080fd5b50565b60008135905061092d81610907565b92915050565b60008060006060848603121561094c5761094b610895565b5b600061095a868287016108e8565b935050602061096b8682870161091e565b925050604061097c8682870161091e565b9150509250925092565b61098f816108fd565b82525050565b600081519050919050565b600082825260208201905092915050565b60005b838110156109cf5780820151818401526020810190506109b4565b60008484015250505050565b6000601f19601f8301169050919050565b60006109f782610995565b610a0181856109a0565b9350610a118185602086016109b1565b610a1a816109db565b840191505092915050565b6000604082019050610a3a6000830185610986565b8181036020830152610a4c81846109ec565b90509392505050565b600080fd5b600080fd5b600080fd5b60008083601f840112610a7a57610a79610a55565b5b8235905067ffffffffffffffff811115610a9757610a96610a5a565b5b602083019150836001820283011115610ab357610ab2610a5f565b5b9250929050565b600080600060408486031215610ad357610ad2610895565b5b6000610ae18682870161091e565b935050602084013567ffffffffffffffff811115610b0257610b0161089a565b5b610b0e86828701610a64565b92509250509250925092565b60008083601f840112610b3057610b2f610a55565b5b8235905067ffffffffffffffff811115610b4d57610b4c610a5a565b5b602083019150836020820283011115610b6957610b68610a5f565b5b9250929050565b60008060208385031215610b8757610b86610895565b5b600083013567ffffffffffffffff811115610ba557610ba461089a565b5b610bb185828601610b1a565b92509250509250929050565b60008083601f840112610bd357610bd2610a55565b5b8235905067ffffffffffffffff811115610bf057610bef610a5a565b5b602083019150836020820283011115610c0c57610c0b610a5f565b5b9250929050565b600080600060408486031215610c2c57610c2b610895565b5b600084013567ffffffffffffffff811115610c4a57610c4961089a565b5b610c5686828701610bbd565b93509350506020610c698682870161091e565b9150509250925092565b600081519050919050565b600082825260208201905092915050565b6000819050602082019050919050565b610ca8816108fd565b82525050565b600082825260208201905092915050565b6000610cca82610995565b610cd48185610cae565b9350610ce48185602086016109b1565b610ced816109db565b840191505092915050565b6000604083016000830151610d106000860182610c9f565b5060208301518482036020860152610d288282610cbf565b9150508091505092915050565b6000610d418383610cf8565b905092915050565b6000602082019050919050565b6000610d6182610c73565b610d6b8185610c7e565b935083602082028501610d7d85610c8f565b8060005b85811015610db95784840389528151610d9a8582610d35565b9450610da583610d49565b925060208a01995050600181019050610d81565b50829750879550505050505092915050565b60006020820190508181036000830152610de58184610d56565b905092915050565b7f4e487b7100000000000000000000000000000000000000000000000000000000600052602260045260246000fd5b60006002820490506001821680610e3457607f821691505b602082108103610e4757610e46610ded565b5b50919050565b7f4e487b7100000000000000000000000000000000000000000000000000000000600052604160045260246000fd5b60008190508160005260206000209050919050565b60006020601f8301049050919050565b600082821b905092915050565b600060088302610ede7fffffffffffffffffffffffffffffffffffffffffffffffffffffffffffffffff82610ea1565b610ee88683610ea1565b95508019841693508086168417925050509392505050565b6000819050919050565b6000610f25610f20610f1b846108fd565b610f00565b6108fd565b9050919050565b6000819050919050565b610f3f83610f0a565b610f53610f4b82610f2c565b848454610eae565b825550505050565b600090565b610f68610f5b565b610f73818484610f36565b505050565b5b81811015610f9757610f8c600082610f60565b600181019050610f79565b5050565b601f821115610fdc57610fad81610e7c565b610fb684610e91565b81016020851015610fc5578190505b610fd9610fd185610e91565b830182610f78565b50505b505050565b600082821c905092915050565b6000610fff60001984600802610fe1565b1980831691505092915050565b60006110188383610fee565b9150826002028217905092915050565b61103182610995565b67ffffffffffffffff81111561104a57611049610e4d565b5b6110548254610e1c565b61105f828285610f9b565b600060209050601f8311600181146110925760008415611080578287015190505b61108a858261100c565b8655506110f2565b601f1984166110a086610e7c565b60005b828110156110c8578489015182556001820191506020850194506020810190506110a3565b868310156110e557848901516110e1601f891682610fee565b8355505b6001600288020188555050505b505050505050565b82818337600083830152505050565b600061111583856109a0565b93506111228385846110fa565b61112b836109db565b840190509392505050565b60006020820190508181036000830152611151818486611109565b90509392505050565b7f4e487b7100000000000000000000000000000000000000000000000000000000600052603260045260246000fd5b600080fd5b600080fd5b600080fd5b6000823560016060038336030381126111b4576111b3611189565b5b80830191505092915050565b600080833560016020038436030381126111dd576111dc611189565b5b80840192508235915067ffffffffffffffff8211156111ff576111fe61118e565b5b60208301925060018202360383131561121b5761121a611193565b5b509250929050565b60006020828403121561123957611238610895565b5b6000611247848285016108e8565b91505092915050565b7f4e487b7100000000000000000000000000000000000000000000000000000000600052601160045260246000fd5b600061128a826108fd565b91507fffffffffffffffffffffffffffffffffffffffffffffffffffffffffffffffff82036112bc576112bb611250565b5b600182019050919050565b60006112d2826108fd565b91506112dd836108fd565b92508282019050808211156112f5576112f4611250565b5b9291505056fea26469706673582212207997b9cefe07a403ea73b6e40e6c25a9fb2f08700f3aac48a5658d5c4dfdd89b64736f6c63430008130033",
  "linkReferences": {},
  "deployedLinkReferences": {}
}